{
  "_format": "hh-sol-artifact-1",
  "contractName": "TestAirdropERC20",
  "sourceName": "contracts/TestAirdropERC20.sol",
  "abi": [
    {
      "inputs": [
        {
          "internalType": "string",
          "name": "name_",
          "type": "string"
        },
        {
          "internalType": "string",
          "name": "symbol_",
          "type": "string"
        },
        {
          "internalType": "uint256",
          "name": "amountToMint",
          "type": "uint256"
        }
      ],
      "stateMutability": "nonpayable",
      "type": "constructor"
    },
    {
      "anonymous": false,
      "inputs": [
        {
          "indexed": true,
          "internalType": "address",
          "name": "owner",
          "type": "address"
        },
        {
          "indexed": true,
          "internalType": "address",
          "name": "spender",
          "type": "address"
        },
        {
          "indexed": false,
          "internalType": "uint256",
          "name": "value",
          "type": "uint256"
        }
      ],
      "name": "Approval",
      "type": "event"
    },
    {
      "anonymous": false,
      "inputs": [
        {
          "indexed": true,
          "internalType": "address",
          "name": "from",
          "type": "address"
        },
        {
          "indexed": true,
          "internalType": "address",
          "name": "to",
          "type": "address"
        },
        {
          "indexed": false,
          "internalType": "uint256",
          "name": "value",
          "type": "uint256"
        }
      ],
      "name": "Transfer",
      "type": "event"
    },
    {
      "inputs": [
        {
          "internalType": "address",
          "name": "owner",
          "type": "address"
        },
        {
          "internalType": "address",
          "name": "spender",
          "type": "address"
        }
      ],
      "name": "allowance",
      "outputs": [
        {
          "internalType": "uint256",
          "name": "",
          "type": "uint256"
        }
      ],
      "stateMutability": "view",
      "type": "function"
    },
    {
      "inputs": [
        {
          "internalType": "address",
          "name": "spender",
          "type": "address"
        },
        {
          "internalType": "uint256",
          "name": "amount",
          "type": "uint256"
        }
      ],
      "name": "approve",
      "outputs": [
        {
          "internalType": "bool",
          "name": "",
          "type": "bool"
        }
      ],
      "stateMutability": "nonpayable",
      "type": "function"
    },
    {
      "inputs": [
        {
          "internalType": "address",
          "name": "account",
          "type": "address"
        }
      ],
      "name": "balanceOf",
      "outputs": [
        {
          "internalType": "uint256",
          "name": "",
          "type": "uint256"
        }
      ],
      "stateMutability": "view",
      "type": "function"
    },
    {
      "inputs": [],
      "name": "decimals",
      "outputs": [
        {
          "internalType": "uint8",
          "name": "",
          "type": "uint8"
        }
      ],
      "stateMutability": "view",
      "type": "function"
    },
    {
      "inputs": [
        {
          "internalType": "address",
          "name": "spender",
          "type": "address"
        },
        {
          "internalType": "uint256",
          "name": "subtractedValue",
          "type": "uint256"
        }
      ],
      "name": "decreaseAllowance",
      "outputs": [
        {
          "internalType": "bool",
          "name": "",
          "type": "bool"
        }
      ],
      "stateMutability": "nonpayable",
      "type": "function"
    },
    {
      "inputs": [
        {
          "internalType": "address",
          "name": "spender",
          "type": "address"
        },
        {
          "internalType": "uint256",
          "name": "addedValue",
          "type": "uint256"
        }
      ],
      "name": "increaseAllowance",
      "outputs": [
        {
          "internalType": "bool",
          "name": "",
          "type": "bool"
        }
      ],
      "stateMutability": "nonpayable",
      "type": "function"
    },
    {
      "inputs": [],
      "name": "name",
      "outputs": [
        {
          "internalType": "string",
          "name": "",
          "type": "string"
        }
      ],
      "stateMutability": "view",
      "type": "function"
    },
    {
      "inputs": [
        {
          "internalType": "address",
          "name": "to",
          "type": "address"
        },
        {
          "internalType": "uint256",
          "name": "amount",
          "type": "uint256"
        }
      ],
      "name": "setBalance",
      "outputs": [],
      "stateMutability": "nonpayable",
      "type": "function"
    },
    {
      "inputs": [],
      "name": "symbol",
      "outputs": [
        {
          "internalType": "string",
          "name": "",
          "type": "string"
        }
      ],
      "stateMutability": "view",
      "type": "function"
    },
    {
      "inputs": [],
      "name": "totalSupply",
      "outputs": [
        {
          "internalType": "uint256",
          "name": "",
          "type": "uint256"
        }
      ],
      "stateMutability": "view",
      "type": "function"
    },
    {
      "inputs": [
        {
          "internalType": "address",
          "name": "recipient",
          "type": "address"
        },
        {
          "internalType": "uint256",
          "name": "amount",
          "type": "uint256"
        }
      ],
      "name": "transfer",
      "outputs": [
        {
          "internalType": "bool",
          "name": "",
          "type": "bool"
        }
      ],
      "stateMutability": "nonpayable",
      "type": "function"
    },
    {
      "inputs": [
        {
          "internalType": "address",
          "name": "sender",
          "type": "address"
        },
        {
          "internalType": "address",
          "name": "recipient",
          "type": "address"
        },
        {
          "internalType": "uint256",
          "name": "amount",
          "type": "uint256"
        }
      ],
      "name": "transferFrom",
      "outputs": [
        {
          "internalType": "bool",
          "name": "",
          "type": "bool"
        }
      ],
      "stateMutability": "nonpayable",
      "type": "function"
    }
  ],
  "bytecode": "0x60806040523480156200001157600080fd5b5060405162002414380380620024148339818101604052810190620000379190620005fb565b8282816003908051906020019062000051929190620004b6565b5080600490805190602001906200006a929190620004b6565b5050506200007f33826200008860201b60201c565b50505062000ae5565b60006200009b83620000fa60201b60201c565b905081811015620000cb57620000c5838284620000b991906200086b565b6200014260201b60201c565b620000f5565b81811115620000f457620000f3838383620000e791906200086b565b620002bb60201b60201c565b5b5b505050565b60008060008373ffffffffffffffffffffffffffffffffffffffff1673ffffffffffffffffffffffffffffffffffffffff168152602001908152602001600020549050919050565b600073ffffffffffffffffffffffffffffffffffffffff168273ffffffffffffffffffffffffffffffffffffffff161415620001b5576040517f08c379a0000000000000000000000000000000000000000000000000000000008152600401620001ac906200075f565b60405180910390fd5b620001c960008383620004ac60201b60201c565b8060026000828254620001dd91906200080e565b92505081905550806000808473ffffffffffffffffffffffffffffffffffffffff1673ffffffffffffffffffffffffffffffffffffffff16815260200190815260200160002060008282546200023491906200080e565b925050819055508173ffffffffffffffffffffffffffffffffffffffff16600073ffffffffffffffffffffffffffffffffffffffff167fddf252ad1be2c89b69c2b068fc378daa952ba7f163c4a11628f55a4df523b3ef836040516200029b919062000781565b60405180910390a3620002b760008383620004b160201b60201c565b5050565b600073ffffffffffffffffffffffffffffffffffffffff168273ffffffffffffffffffffffffffffffffffffffff1614156200032e576040517f08c379a000000000000000000000000000000000000000000000000000000000815260040162000325906200073d565b60405180910390fd5b6200034282600083620004ac60201b60201c565b60008060008473ffffffffffffffffffffffffffffffffffffffff1673ffffffffffffffffffffffffffffffffffffffff16815260200190815260200160002054905081811015620003cb576040517f08c379a0000000000000000000000000000000000000000000000000000000008152600401620003c2906200071b565b60405180910390fd5b8181036000808573ffffffffffffffffffffffffffffffffffffffff1673ffffffffffffffffffffffffffffffffffffffff1681526020019081526020016000208190555081600260008282546200042491906200086b565b92505081905550600073ffffffffffffffffffffffffffffffffffffffff168373ffffffffffffffffffffffffffffffffffffffff167fddf252ad1be2c89b69c2b068fc378daa952ba7f163c4a11628f55a4df523b3ef846040516200048b919062000781565b60405180910390a3620004a783600084620004b160201b60201c565b505050565b505050565b505050565b828054620004c490620008e6565b90600052602060002090601f016020900481019282620004e8576000855562000534565b82601f106200050357805160ff191683800117855562000534565b8280016001018555821562000534579182015b828111156200053357825182559160200191906001019062000516565b5b50905062000543919062000547565b5090565b5b808211156200056257600081600090555060010162000548565b5090565b60006200057d6200057784620007c7565b6200079e565b9050828152602081018484840111156200059c576200059b620009e4565b5b620005a9848285620008b0565b509392505050565b600082601f830112620005c957620005c8620009df565b5b8151620005db84826020860162000566565b91505092915050565b600081519050620005f58162000acb565b92915050565b600080600060608486031215620006175762000616620009ee565b5b600084015167ffffffffffffffff811115620006385762000637620009e9565b5b6200064686828701620005b1565b935050602084015167ffffffffffffffff8111156200066a5762000669620009e9565b5b6200067886828701620005b1565b92505060406200068b86828701620005e4565b9150509250925092565b6000620006a4602283620007fd565b9150620006b18262000a04565b604082019050919050565b6000620006cb602183620007fd565b9150620006d88262000a53565b604082019050919050565b6000620006f2601f83620007fd565b9150620006ff8262000aa2565b602082019050919050565b6200071581620008a6565b82525050565b60006020820190508181036000830152620007368162000695565b9050919050565b600060208201905081810360008301526200075881620006bc565b9050919050565b600060208201905081810360008301526200077a81620006e3565b9050919050565b60006020820190506200079860008301846200070a565b92915050565b6000620007aa620007bd565b9050620007b882826200091c565b919050565b6000604051905090565b600067ffffffffffffffff821115620007e557620007e4620009b0565b5b620007f082620009f3565b9050602081019050919050565b600082825260208201905092915050565b60006200081b82620008a6565b91506200082883620008a6565b9250827fffffffffffffffffffffffffffffffffffffffffffffffffffffffffffffffff0382111562000860576200085f62000952565b5b828201905092915050565b60006200087882620008a6565b91506200088583620008a6565b9250828210156200089b576200089a62000952565b5b828203905092915050565b6000819050919050565b60005b83811015620008d0578082015181840152602081019050620008b3565b83811115620008e0576000848401525b50505050565b60006002820490506001821680620008ff57607f821691505b6020821081141562000916576200091562000981565b5b50919050565b6200092782620009f3565b810181811067ffffffffffffffff82111715620009495762000948620009b0565b5b80604052505050565b7f4e487b7100000000000000000000000000000000000000000000000000000000600052601160045260246000fd5b7f4e487b7100000000000000000000000000000000000000000000000000000000600052602260045260246000fd5b7f4e487b7100000000000000000000000000000000000000000000000000000000600052604160045260246000fd5b600080fd5b600080fd5b600080fd5b600080fd5b6000601f19601f8301169050919050565b7f45524332303a206275726e20616d6f756e7420657863656564732062616c616e60008201527f6365000000000000000000000000000000000000000000000000000000000000602082015250565b7f45524332303a206275726e2066726f6d20746865207a65726f2061646472657360008201527f7300000000000000000000000000000000000000000000000000000000000000602082015250565b7f45524332303a206d696e7420746f20746865207a65726f206164647265737300600082015250565b62000ad681620008a6565b811462000ae257600080fd5b50565b61191f8062000af56000396000f3fe608060405234801561001057600080fd5b50600436106100b45760003560e01c806370a082311161007157806370a08231146101a357806395d89b41146101d3578063a457c2d7146101f1578063a9059cbb14610221578063dd62ed3e14610251578063e30443bc14610281576100b4565b806306fdde03146100b9578063095ea7b3146100d757806318160ddd1461010757806323b872dd14610125578063313ce567146101555780633950935114610173575b600080fd5b6100c161029d565b6040516100ce919061125f565b60405180910390f35b6100f160048036038101906100ec9190611040565b61032f565b6040516100fe9190611244565b60405180910390f35b61010f61034d565b60405161011c91906113c1565b60405180910390f35b61013f600480360381019061013a9190610fed565b610357565b60405161014c9190611244565b60405180910390f35b61015d61044f565b60405161016a91906113dc565b60405180910390f35b61018d60048036038101906101889190611040565b610458565b60405161019a9190611244565b60405180910390f35b6101bd60048036038101906101b89190610f80565b610504565b6040516101ca91906113c1565b60405180910390f35b6101db61054c565b6040516101e8919061125f565b60405180910390f35b61020b60048036038101906102069190611040565b6105de565b6040516102189190611244565b60405180910390f35b61023b60048036038101906102369190611040565b6106c9565b6040516102489190611244565b60405180910390f35b61026b60048036038101906102669190610fad565b6106e7565b60405161027891906113c1565b60405180910390f35b61029b60048036038101906102969190611040565b61076e565b005b6060600380546102ac90611525565b80601f01602080910402602001604051908101604052809291908181526020018280546102d890611525565b80156103255780601f106102fa57610100808354040283529160200191610325565b820191906000526020600020905b81548152906001019060200180831161030857829003601f168201915b5050505050905090565b600061034361033c6107c1565b84846107c9565b6001905092915050565b6000600254905090565b6000610364848484610994565b6000600160008673ffffffffffffffffffffffffffffffffffffffff1673ffffffffffffffffffffffffffffffffffffffff16815260200190815260200160002060006103af6107c1565b73ffffffffffffffffffffffffffffffffffffffff1673ffffffffffffffffffffffffffffffffffffffff1681526020019081526020016000205490508281101561042f576040517f08c379a000000000000000000000000000000000000000000000000000000000815260040161042690611301565b60405180910390fd5b6104438561043b6107c1565b8584036107c9565b60019150509392505050565b60006012905090565b60006104fa6104656107c1565b8484600160006104736107c1565b73ffffffffffffffffffffffffffffffffffffffff1673ffffffffffffffffffffffffffffffffffffffff16815260200190815260200160002060008873ffffffffffffffffffffffffffffffffffffffff1673ffffffffffffffffffffffffffffffffffffffff168152602001908152602001600020546104f59190611413565b6107c9565b6001905092915050565b60008060008373ffffffffffffffffffffffffffffffffffffffff1673ffffffffffffffffffffffffffffffffffffffff168152602001908152602001600020549050919050565b60606004805461055b90611525565b80601f016020809104026020016040519081016040528092919081815260200182805461058790611525565b80156105d45780601f106105a9576101008083540402835291602001916105d4565b820191906000526020600020905b8154815290600101906020018083116105b757829003601f168201915b5050505050905090565b600080600160006105ed6107c1565b73ffffffffffffffffffffffffffffffffffffffff1673ffffffffffffffffffffffffffffffffffffffff16815260200190815260200160002060008573ffffffffffffffffffffffffffffffffffffffff1673ffffffffffffffffffffffffffffffffffffffff168152602001908152602001600020549050828110156106aa576040517f08c379a00000000000000000000000000000000000000000000000000000000081526004016106a190611381565b60405180910390fd5b6106be6106b56107c1565b858584036107c9565b600191505092915050565b60006106dd6106d66107c1565b8484610994565b6001905092915050565b6000600160008473ffffffffffffffffffffffffffffffffffffffff1673ffffffffffffffffffffffffffffffffffffffff16815260200190815260200160002060008373ffffffffffffffffffffffffffffffffffffffff1673ffffffffffffffffffffffffffffffffffffffff16815260200190815260200160002054905092915050565b600061077983610504565b90508181101561079d576107988382846107939190611469565b610c15565b6107bc565b818111156107bb576107ba8383836107b59190611469565b610d75565b5b5b505050565b600033905090565b600073ffffffffffffffffffffffffffffffffffffffff168373ffffffffffffffffffffffffffffffffffffffff161415610839576040517f08c379a000000000000000000000000000000000000000000000000000000000815260040161083090611361565b60405180910390fd5b600073ffffffffffffffffffffffffffffffffffffffff168273ffffffffffffffffffffffffffffffffffffffff1614156108a9576040517f08c379a00000000000000000000000000000000000000000000000000000000081526004016108a0906112c1565b60405180910390fd5b80600160008573ffffffffffffffffffffffffffffffffffffffff1673ffffffffffffffffffffffffffffffffffffffff16815260200190815260200160002060008473ffffffffffffffffffffffffffffffffffffffff1673ffffffffffffffffffffffffffffffffffffffff168152602001908152602001600020819055508173ffffffffffffffffffffffffffffffffffffffff168373ffffffffffffffffffffffffffffffffffffffff167f8c5be1e5ebec7d5bd14f71427d1e84f3dd0314c0f7b2291e5b200ac8c7c3b9258360405161098791906113c1565b60405180910390a3505050565b600073ffffffffffffffffffffffffffffffffffffffff168373ffffffffffffffffffffffffffffffffffffffff161415610a04576040517f08c379a00000000000000000000000000000000000000000000000000000000081526004016109fb90611341565b60405180910390fd5b600073ffffffffffffffffffffffffffffffffffffffff168273ffffffffffffffffffffffffffffffffffffffff161415610a74576040517f08c379a0000000000000000000000000000000000000000000000000000000008152600401610a6b90611281565b60405180910390fd5b610a7f838383610f4c565b60008060008573ffffffffffffffffffffffffffffffffffffffff1673ffffffffffffffffffffffffffffffffffffffff16815260200190815260200160002054905081811015610b05576040517f08c379a0000000000000000000000000000000000000000000000000000000008152600401610afc906112e1565b60405180910390fd5b8181036000808673ffffffffffffffffffffffffffffffffffffffff1673ffffffffffffffffffffffffffffffffffffffff16815260200190815260200160002081905550816000808573ffffffffffffffffffffffffffffffffffffffff1673ffffffffffffffffffffffffffffffffffffffff1681526020019081526020016000206000828254610b989190611413565b925050819055508273ffffffffffffffffffffffffffffffffffffffff168473ffffffffffffffffffffffffffffffffffffffff167fddf252ad1be2c89b69c2b068fc378daa952ba7f163c4a11628f55a4df523b3ef84604051610bfc91906113c1565b60405180910390a3610c0f848484610f51565b50505050565b600073ffffffffffffffffffffffffffffffffffffffff168273ffffffffffffffffffffffffffffffffffffffff161415610c85576040517f08c379a0000000000000000000000000000000000000000000000000000000008152600401610c7c906113a1565b60405180910390fd5b610c9160008383610f4c565b8060026000828254610ca39190611413565b92505081905550806000808473ffffffffffffffffffffffffffffffffffffffff1673ffffffffffffffffffffffffffffffffffffffff1681526020019081526020016000206000828254610cf89190611413565b925050819055508173ffffffffffffffffffffffffffffffffffffffff16600073ffffffffffffffffffffffffffffffffffffffff167fddf252ad1be2c89b69c2b068fc378daa952ba7f163c4a11628f55a4df523b3ef83604051610d5d91906113c1565b60405180910390a3610d7160008383610f51565b5050565b600073ffffffffffffffffffffffffffffffffffffffff168273ffffffffffffffffffffffffffffffffffffffff161415610de5576040517f08c379a0000000000000000000000000000000000000000000000000000000008152600401610ddc90611321565b60405180910390fd5b610df182600083610f4c565b60008060008473ffffffffffffffffffffffffffffffffffffffff1673ffffffffffffffffffffffffffffffffffffffff16815260200190815260200160002054905081811015610e77576040517f08c379a0000000000000000000000000000000000000000000000000000000008152600401610e6e906112a1565b60405180910390fd5b8181036000808573ffffffffffffffffffffffffffffffffffffffff1673ffffffffffffffffffffffffffffffffffffffff168152602001908152602001600020819055508160026000828254610ece9190611469565b92505081905550600073ffffffffffffffffffffffffffffffffffffffff168373ffffffffffffffffffffffffffffffffffffffff167fddf252ad1be2c89b69c2b068fc378daa952ba7f163c4a11628f55a4df523b3ef84604051610f3391906113c1565b60405180910390a3610f4783600084610f51565b505050565b505050565b505050565b600081359050610f65816118bb565b92915050565b600081359050610f7a816118d2565b92915050565b600060208284031215610f9657610f956115b5565b5b6000610fa484828501610f56565b91505092915050565b60008060408385031215610fc457610fc36115b5565b5b6000610fd285828601610f56565b9250506020610fe385828601610f56565b9150509250929050565b600080600060608486031215611006576110056115b5565b5b600061101486828701610f56565b935050602061102586828701610f56565b925050604061103686828701610f6b565b9150509250925092565b60008060408385031215611057576110566115b5565b5b600061106585828601610f56565b925050602061107685828601610f6b565b9150509250929050565b611089816114af565b82525050565b600061109a826113f7565b6110a48185611402565b93506110b48185602086016114f2565b6110bd816115ba565b840191505092915050565b60006110d5602383611402565b91506110e0826115cb565b604082019050919050565b60006110f8602283611402565b91506111038261161a565b604082019050919050565b600061111b602283611402565b915061112682611669565b604082019050919050565b600061113e602683611402565b9150611149826116b8565b604082019050919050565b6000611161602883611402565b915061116c82611707565b604082019050919050565b6000611184602183611402565b915061118f82611756565b604082019050919050565b60006111a7602583611402565b91506111b2826117a5565b604082019050919050565b60006111ca602483611402565b91506111d5826117f4565b604082019050919050565b60006111ed602583611402565b91506111f882611843565b604082019050919050565b6000611210601f83611402565b915061121b82611892565b602082019050919050565b61122f816114db565b82525050565b61123e816114e5565b82525050565b60006020820190506112596000830184611080565b92915050565b60006020820190508181036000830152611279818461108f565b905092915050565b6000602082019050818103600083015261129a816110c8565b9050919050565b600060208201905081810360008301526112ba816110eb565b9050919050565b600060208201905081810360008301526112da8161110e565b9050919050565b600060208201905081810360008301526112fa81611131565b9050919050565b6000602082019050818103600083015261131a81611154565b9050919050565b6000602082019050818103600083015261133a81611177565b9050919050565b6000602082019050818103600083015261135a8161119a565b9050919050565b6000602082019050818103600083015261137a816111bd565b9050919050565b6000602082019050818103600083015261139a816111e0565b9050919050565b600060208201905081810360008301526113ba81611203565b9050919050565b60006020820190506113d66000830184611226565b92915050565b60006020820190506113f16000830184611235565b92915050565b600081519050919050565b600082825260208201905092915050565b600061141e826114db565b9150611429836114db565b9250827fffffffffffffffffffffffffffffffffffffffffffffffffffffffffffffffff0382111561145e5761145d611557565b5b828201905092915050565b6000611474826114db565b915061147f836114db565b92508282101561149257611491611557565b5b828203905092915050565b60006114a8826114bb565b9050919050565b60008115159050919050565b600073ffffffffffffffffffffffffffffffffffffffff82169050919050565b6000819050919050565b600060ff82169050919050565b60005b838110156115105780820151818401526020810190506114f5565b8381111561151f576000848401525b50505050565b6000600282049050600182168061153d57607f821691505b6020821081141561155157611550611586565b5b50919050565b7f4e487b7100000000000000000000000000000000000000000000000000000000600052601160045260246000fd5b7f4e487b7100000000000000000000000000000000000000000000000000000000600052602260045260246000fd5b600080fd5b6000601f19601f8301169050919050565b7f45524332303a207472616e7366657220746f20746865207a65726f206164647260008201527f6573730000000000000000000000000000000000000000000000000000000000602082015250565b7f45524332303a206275726e20616d6f756e7420657863656564732062616c616e60008201527f6365000000000000000000000000000000000000000000000000000000000000602082015250565b7f45524332303a20617070726f766520746f20746865207a65726f20616464726560008201527f7373000000000000000000000000000000000000000000000000000000000000602082015250565b7f45524332303a207472616e7366657220616d6f756e742065786365656473206260008201527f616c616e63650000000000000000000000000000000000000000000000000000602082015250565b7f45524332303a207472616e7366657220616d6f756e742065786365656473206160008201527f6c6c6f77616e6365000000000000000000000000000000000000000000000000602082015250565b7f45524332303a206275726e2066726f6d20746865207a65726f2061646472657360008201527f7300000000000000000000000000000000000000000000000000000000000000602082015250565b7f45524332303a207472616e736665722066726f6d20746865207a65726f20616460008201527f6472657373000000000000000000000000000000000000000000000000000000602082015250565b7f45524332303a20617070726f76652066726f6d20746865207a65726f2061646460008201527f7265737300000000000000000000000000000000000000000000000000000000602082015250565b7f45524332303a2064656372656173656420616c6c6f77616e63652062656c6f7760008201527f207a65726f000000000000000000000000000000000000000000000000000000602082015250565b7f45524332303a206d696e7420746f20746865207a65726f206164647265737300600082015250565b6118c48161149d565b81146118cf57600080fd5b50565b6118db816114db565b81146118e657600080fd5b5056fea2646970667358221220e27f25aab598a5f1c8262eed32f10cdb373a748018b8dcd7fb9e1ecf0be9310464736f6c63430008070033",
  "linkReferences": {},
  "deployedLinkReferences": {}
}