{
  "_format": "hh-sol-artifact-1",
  "contractName": "DisperseNFT",
  "sourceName": "contracts/DisperseNFT.sol",
  "abi": [
    {
      "inputs": [
        {
          "internalType": "contract IERC1155",
          "name": "token",
          "type": "address"
        },
        {
          "internalType": "address[]",
          "name": "recipients",
          "type": "address[]"
        },
        {
          "internalType": "uint256[]",
          "name": "ids",
          "type": "uint256[]"
        },
        {
          "internalType": "uint256[]",
          "name": "amounts",
          "type": "uint256[]"
        },
        {
          "internalType": "bytes",
          "name": "data",
          "type": "bytes"
        }
      ],
      "name": "disperseTokenERC1155",
      "outputs": [],
      "stateMutability": "nonpayable",
      "type": "function"
    },
    {
      "inputs": [
        {
          "internalType": "contract IERC721",
          "name": "token",
          "type": "address"
        },
        {
          "internalType": "address[]",
          "name": "recipients",
          "type": "address[]"
        },
        {
          "internalType": "uint256[]",
          "name": "values",
          "type": "uint256[]"
        }
      ],
      "name": "disperseTokenERC721",
      "outputs": [],
      "stateMutability": "nonpayable",
      "type": "function"
    }
  ],
  "bytecode": "0x608060405234801561001057600080fd5b50610e8a806100206000396000f3fe608060405234801561001057600080fd5b50600436106100365760003560e01c80637af7c95f1461003b5780638484839b14610057575b600080fd5b6100556004803603810190610050919061088a565b610073565b005b610071600480360381019061006c919061078e565b6102b6565b005b60005b848490508110156102ae578573ffffffffffffffffffffffffffffffffffffffff1663e985e9c533306040518363ffffffff1660e01b81526004016100bc929190610a39565b60206040518083038186803b1580156100d457600080fd5b505afa1580156100e8573d6000803e3d6000fd5b505050506040513d601f19601f8201168201806040525081019061010c9190610761565b806101e357503073ffffffffffffffffffffffffffffffffffffffff168673ffffffffffffffffffffffffffffffffffffffff1663081812fc85858581811061015857610157610d0b565b5b905060200201356040518263ffffffff1660e01b815260040161017b9190610b70565b60206040518083038186803b15801561019357600080fd5b505afa1580156101a7573d6000803e3d6000fd5b505050506040513d601f19601f820116820180604052508101906101cb9190610734565b73ffffffffffffffffffffffffffffffffffffffff16145b6101ec57600080fd5b8573ffffffffffffffffffffffffffffffffffffffff166342842e0e3387878581811061021c5761021b610d0b565b5b90506020020160208101906102319190610707565b86868681811061024457610243610d0b565b5b905060200201356040518463ffffffff1660e01b815260040161026993929190610ad0565b600060405180830381600087803b15801561028357600080fd5b505af1158015610297573d6000803e3d6000fd5b5050505080806102a690610c93565b915050610076565b505050505050565b8873ffffffffffffffffffffffffffffffffffffffff1663e985e9c533306040518363ffffffff1660e01b81526004016102f1929190610a39565b60206040518083038186803b15801561030957600080fd5b505afa15801561031d573d6000803e3d6000fd5b505050506040513d601f19601f820116820180604052508101906103419190610761565b610380576040517f08c379a000000000000000000000000000000000000000000000000000000000815260040161037790610b50565b60405180910390fd5b60005b868690508110156104b95760008a73ffffffffffffffffffffffffffffffffffffffff1662fdd58e338a8a868181106103bf576103be610d0b565b5b905060200201356040518363ffffffff1660e01b81526004016103e3929190610b07565b60206040518083038186803b1580156103fb57600080fd5b505afa15801561040f573d6000803e3d6000fd5b505050506040513d601f19601f82011682018060405250810190610433919061091f565b9050600086868481811061044a57610449610d0b565b5b905060200201358b8b905061045f9190610bbe565b9050818111156104a4576040517f08c379a000000000000000000000000000000000000000000000000000000000815260040161049b90610b30565b60405180910390fd5b505080806104b190610c93565b915050610383565b5060005b8888905081101561057b578973ffffffffffffffffffffffffffffffffffffffff16632eb2c2d6338b8b858181106104f8576104f7610d0b565b5b905060200201602081019061050d9190610707565b8a8a8a8a8a8a6040518963ffffffff1660e01b8152600401610536989796959493929190610a62565b600060405180830381600087803b15801561055057600080fd5b505af1158015610564573d6000803e3d6000fd5b50505050808061057390610c93565b9150506104bd565b50505050505050505050565b60008135905061059681610de1565b92915050565b6000815190506105ab81610de1565b92915050565b60008083601f8401126105c7576105c6610d3f565b5b8235905067ffffffffffffffff8111156105e4576105e3610d3a565b5b602083019150836020820283011115610600576105ff610d44565b5b9250929050565b60008083601f84011261061d5761061c610d3f565b5b8235905067ffffffffffffffff81111561063a57610639610d3a565b5b60208301915083602082028301111561065657610655610d44565b5b9250929050565b60008151905061066c81610df8565b92915050565b60008083601f84011261068857610687610d3f565b5b8235905067ffffffffffffffff8111156106a5576106a4610d3a565b5b6020830191508360018202830111156106c1576106c0610d44565b5b9250929050565b6000813590506106d781610e0f565b92915050565b6000813590506106ec81610e26565b92915050565b60008151905061070181610e3d565b92915050565b60006020828403121561071d5761071c610d53565b5b600061072b84828501610587565b91505092915050565b60006020828403121561074a57610749610d53565b5b60006107588482850161059c565b91505092915050565b60006020828403121561077757610776610d53565b5b60006107858482850161065d565b91505092915050565b600080600080600080600080600060a08a8c0312156107b0576107af610d53565b5b60006107be8c828d016106c8565b99505060208a013567ffffffffffffffff8111156107df576107de610d49565b5b6107eb8c828d016105b1565b985098505060408a013567ffffffffffffffff81111561080e5761080d610d49565b5b61081a8c828d01610607565b965096505060608a013567ffffffffffffffff81111561083d5761083c610d49565b5b6108498c828d01610607565b945094505060808a013567ffffffffffffffff81111561086c5761086b610d49565b5b6108788c828d01610672565b92509250509295985092959850929598565b6000806000806000606086880312156108a6576108a5610d53565b5b60006108b4888289016106dd565b955050602086013567ffffffffffffffff8111156108d5576108d4610d49565b5b6108e1888289016105b1565b9450945050604086013567ffffffffffffffff81111561090457610903610d49565b5b61091088828901610607565b92509250509295509295909350565b60006020828403121561093557610934610d53565b5b6000610943848285016106f2565b91505092915050565b61095581610c18565b82525050565b60006109678385610b8b565b93507f07ffffffffffffffffffffffffffffffffffffffffffffffffffffffffffffff83111561099a57610999610d4e565b5b6020830292506109ab838584610c84565b82840190509392505050565b60006109c38385610b9c565b93506109d0838584610c84565b6109d983610d58565b840190509392505050565b60006109f1601483610bad565b91506109fc82610d69565b602082019050919050565b6000610a14602983610bad565b9150610a1f82610d92565b604082019050919050565b610a3381610c7a565b82525050565b6000604082019050610a4e600083018561094c565b610a5b602083018461094c565b9392505050565b600060a082019050610a77600083018b61094c565b610a84602083018a61094c565b8181036040830152610a9781888a61095b565b90508181036060830152610aac81868861095b565b90508181036080830152610ac18184866109b7565b90509998505050505050505050565b6000606082019050610ae5600083018661094c565b610af2602083018561094c565b610aff6040830184610a2a565b949350505050565b6000604082019050610b1c600083018561094c565b610b296020830184610a2a565b9392505050565b60006020820190508181036000830152610b49816109e4565b9050919050565b60006020820190508181036000830152610b6981610a07565b9050919050565b6000602082019050610b856000830184610a2a565b92915050565b600082825260208201905092915050565b600082825260208201905092915050565b600082825260208201905092915050565b6000610bc982610c7a565b9150610bd483610c7a565b9250817fffffffffffffffffffffffffffffffffffffffffffffffffffffffffffffffff0483118215151615610c0d57610c0c610cdc565b5b828202905092915050565b6000610c2382610c5a565b9050919050565b60008115159050919050565b6000610c4182610c18565b9050919050565b6000610c5382610c18565b9050919050565b600073ffffffffffffffffffffffffffffffffffffffff82169050919050565b6000819050919050565b82818337600083830152505050565b6000610c9e82610c7a565b91507fffffffffffffffffffffffffffffffffffffffffffffffffffffffffffffffff821415610cd157610cd0610cdc565b5b600182019050919050565b7f4e487b7100000000000000000000000000000000000000000000000000000000600052601160045260246000fd5b7f4e487b7100000000000000000000000000000000000000000000000000000000600052603260045260246000fd5b600080fd5b600080fd5b600080fd5b600080fd5b600080fd5b600080fd5b6000601f19601f8301169050919050565b7f496e73756666696369656e742062616c616e6365000000000000000000000000600082015250565b7f53656e64657220686173206e6f7420617070726f76656420646973706572736560008201527f20636f6e74726163740000000000000000000000000000000000000000000000602082015250565b610dea81610c18565b8114610df557600080fd5b50565b610e0181610c2a565b8114610e0c57600080fd5b50565b610e1881610c36565b8114610e2357600080fd5b50565b610e2f81610c48565b8114610e3a57600080fd5b50565b610e4681610c7a565b8114610e5157600080fd5b5056fea2646970667358221220291f2aba5ae95cb1bf53602d13557f5eafdb5fee332398a48726132702d0ea9d64736f6c63430008070033",
  "linkReferences": {},
  "deployedLinkReferences": {}
}