{
  "_format": "hh-sol-artifact-1",
  "contractName": "AirdropFactory",
  "sourceName": "contracts/AirdropFactory.sol",
  "abi": [
    {
      "anonymous": false,
      "inputs": [
        {
          "indexed": true,
          "internalType": "address",
          "name": "addr",
          "type": "address"
        },
        {
          "indexed": false,
          "internalType": "uint256",
          "name": "id",
          "type": "uint256"
        }
      ],
      "name": "AirdropCreated",
      "type": "event"
    },
    {
      "inputs": [],
      "name": "airdropCount",
      "outputs": [
        {
          "internalType": "uint256",
          "name": "",
          "type": "uint256"
        }
      ],
      "stateMutability": "view",
      "type": "function"
    },
    {
      "inputs": [
        {
          "internalType": "address",
          "name": "_token",
          "type": "address"
        },
        {
          "internalType": "bytes32",
          "name": "_merkleRoot",
          "type": "bytes32"
        },
        {
          "internalType": "string",
          "name": "_cid",
          "type": "string"
        }
      ],
      "name": "createAirdrop",
      "outputs": [],
      "stateMutability": "nonpayable",
      "type": "function"
    },
    {
      "inputs": [
        {
          "internalType": "uint256",
          "name": "",
          "type": "uint256"
        }
      ],
      "name": "deployedAirdops",
      "outputs": [
        {
          "internalType": "address",
          "name": "addr",
          "type": "address"
        },
        {
          "internalType": "string",
          "name": "cid",
          "type": "string"
        }
      ],
      "stateMutability": "view",
      "type": "function"
    },
    {
      "inputs": [
        {
          "internalType": "uint256",
          "name": "_id",
          "type": "uint256"
        }
      ],
      "name": "getAirdropAddress",
      "outputs": [
        {
          "internalType": "address",
          "name": "",
          "type": "address"
        }
      ],
      "stateMutability": "view",
      "type": "function"
    },
    {
      "inputs": [
        {
          "internalType": "uint256",
          "name": "_id",
          "type": "uint256"
        }
      ],
      "name": "getAirdropCID",
      "outputs": [
        {
          "internalType": "string",
          "name": "",
          "type": "string"
        }
      ],
      "stateMutability": "view",
      "type": "function"
    }
  ],
  "bytecode": "0x6080604052600060015534801561001557600080fd5b506118ef806100256000396000f3fe60806040523480156200001157600080fd5b50600436106200005e5760003560e01c80637a338c981462000063578063a504428a146200009a578063c36f8d5014620000d0578063c72cafe21462000106578063e952f74f1462000126575b600080fd5b6200008160048036038101906200007b9190620006d6565b62000148565b60405162000091929190620007c6565b60405180910390f35b620000b86004803603810190620000b29190620006d6565b6200021c565b604051620000c79190620007fa565b60405180910390f35b620000ee6004803603810190620000e89190620006d6565b620002cb565b604051620000fd91906200077c565b60405180910390f35b6200012460048036038101906200011e91906200065b565b6200030a565b005b62000130620004d4565b6040516200013f91906200081e565b60405180910390f35b60006020528060005260406000206000915090508060000160009054906101000a900473ffffffffffffffffffffffffffffffffffffffff1690806001018054620001939062000943565b80601f0160208091040260200160405190810160405280929190818152602001828054620001c19062000943565b8015620002125780601f10620001e65761010080835404028352916020019162000212565b820191906000526020600020905b815481529060010190602001808311620001f457829003601f168201915b5050505050905082565b60606000808381526020019081526020016000206001018054620002409062000943565b80601f01602080910402602001604051908101604052809291908181526020018280546200026e9062000943565b8015620002bf5780601f106200029357610100808354040283529160200191620002bf565b820191906000526020600020905b815481529060010190602001808311620002a157829003601f168201915b50505050509050919050565b600080600083815260200190815260200160002060000160009054906101000a900473ffffffffffffffffffffffffffffffffffffffff169050919050565b600073ffffffffffffffffffffffffffffffffffffffff16600080600154815260200190815260200160002060000160009054906101000a900473ffffffffffffffffffffffffffffffffffffffff1673ffffffffffffffffffffffffffffffffffffffff16146200037b57600080fd5b600083836040516200038d90620004da565b6200039a92919062000799565b604051809103906000f080158015620003b7573d6000803e3d6000fd5b50905060405180604001604052808273ffffffffffffffffffffffffffffffffffffffff16815260200183815250600080600154815260200190815260200160002060008201518160000160006101000a81548173ffffffffffffffffffffffffffffffffffffffff021916908373ffffffffffffffffffffffffffffffffffffffff16021790555060208201518160010190805190602001906200045e929190620004e8565b509050508073ffffffffffffffffffffffffffffffffffffffff167f69e4f3213b628a2b80dab9e90ea182bebd29bc7279115728fbea918fa067d3e7600154604051620004ac91906200081e565b60405180910390a260016000815480929190620004c990620009af565b919050555050505050565b60015481565b610dbc8062000afe83390190565b828054620004f69062000943565b90600052602060002090601f0160209004810192826200051a576000855562000566565b82601f106200053557805160ff191683800117855562000566565b8280016001018555821562000566579182015b828111156200056557825182559160200191906001019062000548565b5b50905062000575919062000579565b5090565b5b80821115620005945760008160009055506001016200057a565b5090565b6000620005af620005a98462000864565b6200083b565b905082815260208101848484011115620005ce57620005cd62000a8f565b5b620005db848285620008fe565b509392505050565b600081359050620005f48162000aaf565b92915050565b6000813590506200060b8162000ac9565b92915050565b600082601f83011262000629576200062862000a8a565b5b81356200063b84826020860162000598565b91505092915050565b600081359050620006558162000ae3565b92915050565b60008060006060848603121562000677576200067662000a99565b5b60006200068786828701620005e3565b93505060206200069a86828701620005fa565b925050604084013567ffffffffffffffff811115620006be57620006bd62000a94565b5b620006cc8682870162000611565b9150509250925092565b600060208284031215620006ef57620006ee62000a99565b5b6000620006ff8482850162000644565b91505092915050565b6200071381620008b6565b82525050565b6200072481620008ca565b82525050565b600062000737826200089a565b620007438185620008a5565b9350620007558185602086016200090d565b620007608162000a9e565b840191505092915050565b6200077681620008f4565b82525050565b600060208201905062000793600083018462000708565b92915050565b6000604082019050620007b0600083018562000708565b620007bf602083018462000719565b9392505050565b6000604082019050620007dd600083018562000708565b8181036020830152620007f181846200072a565b90509392505050565b600060208201905081810360008301526200081681846200072a565b905092915050565b60006020820190506200083560008301846200076b565b92915050565b6000620008476200085a565b905062000855828262000979565b919050565b6000604051905090565b600067ffffffffffffffff82111562000882576200088162000a5b565b5b6200088d8262000a9e565b9050602081019050919050565b600081519050919050565b600082825260208201905092915050565b6000620008c382620008d4565b9050919050565b6000819050919050565b600073ffffffffffffffffffffffffffffffffffffffff82169050919050565b6000819050919050565b82818337600083830152505050565b60005b838110156200092d57808201518184015260208101905062000910565b838111156200093d576000848401525b50505050565b600060028204905060018216806200095c57607f821691505b6020821081141562000973576200097262000a2c565b5b50919050565b620009848262000a9e565b810181811067ffffffffffffffff82111715620009a657620009a562000a5b565b5b80604052505050565b6000620009bc82620008f4565b91507fffffffffffffffffffffffffffffffffffffffffffffffffffffffffffffffff821415620009f257620009f1620009fd565b5b600182019050919050565b7f4e487b7100000000000000000000000000000000000000000000000000000000600052601160045260246000fd5b7f4e487b7100000000000000000000000000000000000000000000000000000000600052602260045260246000fd5b7f4e487b7100000000000000000000000000000000000000000000000000000000600052604160045260246000fd5b600080fd5b600080fd5b600080fd5b600080fd5b6000601f19601f8301169050919050565b62000aba81620008b6565b811462000ac657600080fd5b50565b62000ad481620008ca565b811462000ae057600080fd5b50565b62000aee81620008f4565b811462000afa57600080fd5b5056fe60c06040523480156200001157600080fd5b5060405162000dbc38038062000dbc8339818101604052810190620000379190620000ac565b8173ffffffffffffffffffffffffffffffffffffffff1660808173ffffffffffffffffffffffffffffffffffffffff1660601b815250508060a0818152505050506200016a565b6000815190506200008f8162000136565b92915050565b600081519050620000a68162000150565b92915050565b60008060408385031215620000c657620000c562000131565b5b6000620000d6858286016200007e565b9250506020620000e98582860162000095565b9150509250929050565b6000620001008262000111565b9050919050565b6000819050919050565b600073ffffffffffffffffffffffffffffffffffffffff82169050919050565b600080fd5b6200014181620000f3565b81146200014d57600080fd5b50565b6200015b8162000107565b81146200016757600080fd5b50565b60805160601c60a051610c1b620001a160003960008181610198015261033601526000818161020701526103af0152610c1b6000f3fe608060405234801561001057600080fd5b506004361061004c5760003560e01c80632e7ba6ef146100515780632eb4a7ab1461006d5780639e34070f1461008b578063fc0c546a146100bb575b600080fd5b61006b600480360381019061006691906105ce565b6100d9565b005b610075610334565b6040516100829190610808565b60405180910390f35b6100a560048036038101906100a091906105a1565b610358565b6040516100b291906107ed565b60405180910390f35b6100c36103ad565b6040516100d091906107a9565b60405180910390f35b6100e285610358565b15610122576040517f08c379a000000000000000000000000000000000000000000000000000000000815260040161011990610823565b60405180910390fd5b60008585856040516020016101399392919061076c565b6040516020818303038152906040528051906020012090506101bd838380806020026020016040519081016040528093929190818152602001838360200280828437600081840152601f19601f820116905080830192505050505050507f0000000000000000000000000000000000000000000000000000000000000000836103d1565b6101fc576040517f08c379a00000000000000000000000000000000000000000000000000000000081526004016101f390610843565b60405180910390fd5b61020586610487565b7f000000000000000000000000000000000000000000000000000000000000000073ffffffffffffffffffffffffffffffffffffffff1663a9059cbb86866040518363ffffffff1660e01b81526004016102609291906107c4565b602060405180830381600087803b15801561027a57600080fd5b505af115801561028e573d6000803e3d6000fd5b505050506040513d601f19601f820116820180604052508101906102b29190610574565b6102f1576040517f08c379a00000000000000000000000000000000000000000000000000000000081526004016102e890610863565b60405180910390fd5b7f4ec90e965519d92681267467f775ada5bd214aa92c0dc93d90a5e880ce9ed02686868660405161032493929190610883565b60405180910390a1505050505050565b7f000000000000000000000000000000000000000000000000000000000000000081565b6000806101008361036991906108cb565b905060006101008461037b91906109cf565b905060008060008481526020019081526020016000205490506000826001901b90508081831614945050505050919050565b7f000000000000000000000000000000000000000000000000000000000000000081565b60008082905060005b85518110156104795760008682815181106103f8576103f7610a5e565b5b6020026020010151905080831161043957828160405160200161041c929190610740565b604051602081830303815290604052805190602001209250610465565b808360405160200161044c929190610740565b6040516020818303038152906040528051906020012092505b5080806104719061094e565b9150506103da565b508381149150509392505050565b60006101008261049791906108cb565b90506000610100836104a991906109cf565b9050806001901b600080848152602001908152602001600020541760008084815260200190815260200160002081905550505050565b6000813590506104ee81610ba0565b92915050565b60008083601f84011261050a57610509610a92565b5b8235905067ffffffffffffffff81111561052757610526610a8d565b5b60208301915083602082028301111561054357610542610a97565b5b9250929050565b60008151905061055981610bb7565b92915050565b60008135905061056e81610bce565b92915050565b60006020828403121561058a57610589610aa1565b5b60006105988482850161054a565b91505092915050565b6000602082840312156105b7576105b6610aa1565b5b60006105c58482850161055f565b91505092915050565b6000806000806000608086880312156105ea576105e9610aa1565b5b60006105f88882890161055f565b9550506020610609888289016104df565b945050604061061a8882890161055f565b935050606086013567ffffffffffffffff81111561063b5761063a610a9c565b5b610647888289016104f4565b92509250509295509295909350565b61065f816108fc565b82525050565b610676610671826108fc565b610997565b82525050565b6106858161090e565b82525050565b6106948161091a565b82525050565b6106ab6106a68261091a565b6109a9565b82525050565b60006106be6028836108ba565b91506106c982610ab3565b604082019050919050565b60006106e16021836108ba565b91506106ec82610b02565b604082019050919050565b60006107046023836108ba565b915061070f82610b51565b604082019050919050565b61072381610944565b82525050565b61073a61073582610944565b6109c5565b82525050565b600061074c828561069a565b60208201915061075c828461069a565b6020820191508190509392505050565b60006107788286610729565b6020820191506107888285610665565b6014820191506107988284610729565b602082019150819050949350505050565b60006020820190506107be6000830184610656565b92915050565b60006040820190506107d96000830185610656565b6107e6602083018461071a565b9392505050565b6000602082019050610802600083018461067c565b92915050565b600060208201905061081d600083018461068b565b92915050565b6000602082019050818103600083015261083c816106b1565b9050919050565b6000602082019050818103600083015261085c816106d4565b9050919050565b6000602082019050818103600083015261087c816106f7565b9050919050565b6000606082019050610898600083018661071a565b6108a56020830185610656565b6108b2604083018461071a565b949350505050565b600082825260208201905092915050565b60006108d682610944565b91506108e183610944565b9250826108f1576108f0610a2f565b5b828204905092915050565b600061090782610924565b9050919050565b60008115159050919050565b6000819050919050565b600073ffffffffffffffffffffffffffffffffffffffff82169050919050565b6000819050919050565b600061095982610944565b91507fffffffffffffffffffffffffffffffffffffffffffffffffffffffffffffffff82141561098c5761098b610a00565b5b600182019050919050565b60006109a2826109b3565b9050919050565b6000819050919050565b60006109be82610aa6565b9050919050565b6000819050919050565b60006109da82610944565b91506109e583610944565b9250826109f5576109f4610a2f565b5b828206905092915050565b7f4e487b7100000000000000000000000000000000000000000000000000000000600052601160045260246000fd5b7f4e487b7100000000000000000000000000000000000000000000000000000000600052601260045260246000fd5b7f4e487b7100000000000000000000000000000000000000000000000000000000600052603260045260246000fd5b600080fd5b600080fd5b600080fd5b600080fd5b600080fd5b60008160601b9050919050565b7f4d65726b6c654469737472696275746f723a2044726f7020616c72656164792060008201527f636c61696d65642e000000000000000000000000000000000000000000000000602082015250565b7f4d65726b6c654469737472696275746f723a20496e76616c69642070726f6f6660008201527f2e00000000000000000000000000000000000000000000000000000000000000602082015250565b7f4d65726b6c654469737472696275746f723a205472616e73666572206661696c60008201527f65642e0000000000000000000000000000000000000000000000000000000000602082015250565b610ba9816108fc565b8114610bb457600080fd5b50565b610bc08161090e565b8114610bcb57600080fd5b50565b610bd781610944565b8114610be257600080fd5b5056fea26469706673582212202fdf44b1133f9eef669383a515215956806c7483547638c4241e80a987e25da764736f6c63430008070033a2646970667358221220c7ba16d1ca4374f1a7542b37ba03be150113855a01201faf3f332dcee80e464364736f6c63430008070033",
  "linkReferences": {},
  "deployedLinkReferences": {}
}