{
  "_format": "hh-sol-artifact-1",
  "contractName": "Balloon",
  "sourceName": "contracts/Balloon.sol",
  "abi": [
    {
      "inputs": [],
      "stateMutability": "nonpayable",
      "type": "constructor"
    },
    {
      "anonymous": false,
      "inputs": [
        {
          "indexed": true,
          "internalType": "address",
          "name": "owner",
          "type": "address"
        },
        {
          "indexed": true,
          "internalType": "address",
          "name": "approved",
          "type": "address"
        },
        {
          "indexed": true,
          "internalType": "uint256",
          "name": "tokenId",
          "type": "uint256"
        }
      ],
      "name": "Approval",
      "type": "event"
    },
    {
      "anonymous": false,
      "inputs": [
        {
          "indexed": true,
          "internalType": "address",
          "name": "owner",
          "type": "address"
        },
        {
          "indexed": true,
          "internalType": "address",
          "name": "operator",
          "type": "address"
        },
        {
          "indexed": false,
          "internalType": "bool",
          "name": "approved",
          "type": "bool"
        }
      ],
      "name": "ApprovalForAll",
      "type": "event"
    },
    {
      "anonymous": false,
      "inputs": [
        {
          "indexed": true,
          "internalType": "address",
          "name": "from",
          "type": "address"
        },
        {
          "indexed": true,
          "internalType": "address",
          "name": "to",
          "type": "address"
        },
        {
          "indexed": true,
          "internalType": "uint256",
          "name": "tokenId",
          "type": "uint256"
        }
      ],
      "name": "Transfer",
      "type": "event"
    },
    {
      "inputs": [
        {
          "internalType": "address",
          "name": "to",
          "type": "address"
        },
        {
          "internalType": "uint256",
          "name": "tokenId",
          "type": "uint256"
        }
      ],
      "name": "approve",
      "outputs": [],
      "stateMutability": "nonpayable",
      "type": "function"
    },
    {
      "inputs": [
        {
          "internalType": "address",
          "name": "owner",
          "type": "address"
        }
      ],
      "name": "balanceOf",
      "outputs": [
        {
          "internalType": "uint256",
          "name": "",
          "type": "uint256"
        }
      ],
      "stateMutability": "view",
      "type": "function"
    },
    {
      "inputs": [
        {
          "internalType": "address",
          "name": "recipient",
          "type": "address"
        },
        {
          "internalType": "string",
          "name": "tokenURI",
          "type": "string"
        }
      ],
      "name": "createBalloon",
      "outputs": [
        {
          "internalType": "uint256",
          "name": "",
          "type": "uint256"
        }
      ],
      "stateMutability": "payable",
      "type": "function"
    },
    {
      "inputs": [
        {
          "internalType": "uint256",
          "name": "tokenId",
          "type": "uint256"
        }
      ],
      "name": "getApproved",
      "outputs": [
        {
          "internalType": "address",
          "name": "",
          "type": "address"
        }
      ],
      "stateMutability": "view",
      "type": "function"
    },
    {
      "inputs": [
        {
          "internalType": "address",
          "name": "owner",
          "type": "address"
        },
        {
          "internalType": "address",
          "name": "operator",
          "type": "address"
        }
      ],
      "name": "isApprovedForAll",
      "outputs": [
        {
          "internalType": "bool",
          "name": "",
          "type": "bool"
        }
      ],
      "stateMutability": "view",
      "type": "function"
    },
    {
      "inputs": [],
      "name": "name",
      "outputs": [
        {
          "internalType": "string",
          "name": "",
          "type": "string"
        }
      ],
      "stateMutability": "view",
      "type": "function"
    },
    {
      "inputs": [
        {
          "internalType": "uint256",
          "name": "tokenId",
          "type": "uint256"
        }
      ],
      "name": "ownerOf",
      "outputs": [
        {
          "internalType": "address",
          "name": "",
          "type": "address"
        }
      ],
      "stateMutability": "view",
      "type": "function"
    },
    {
      "inputs": [
        {
          "internalType": "address",
          "name": "from",
          "type": "address"
        },
        {
          "internalType": "address",
          "name": "to",
          "type": "address"
        },
        {
          "internalType": "uint256",
          "name": "tokenId",
          "type": "uint256"
        }
      ],
      "name": "safeTransferFrom",
      "outputs": [],
      "stateMutability": "nonpayable",
      "type": "function"
    },
    {
      "inputs": [
        {
          "internalType": "address",
          "name": "from",
          "type": "address"
        },
        {
          "internalType": "address",
          "name": "to",
          "type": "address"
        },
        {
          "internalType": "uint256",
          "name": "tokenId",
          "type": "uint256"
        },
        {
          "internalType": "bytes",
          "name": "_data",
          "type": "bytes"
        }
      ],
      "name": "safeTransferFrom",
      "outputs": [],
      "stateMutability": "nonpayable",
      "type": "function"
    },
    {
      "inputs": [
        {
          "internalType": "address",
          "name": "operator",
          "type": "address"
        },
        {
          "internalType": "bool",
          "name": "approved",
          "type": "bool"
        }
      ],
      "name": "setApprovalForAll",
      "outputs": [],
      "stateMutability": "nonpayable",
      "type": "function"
    },
    {
      "inputs": [
        {
          "internalType": "bytes4",
          "name": "interfaceId",
          "type": "bytes4"
        }
      ],
      "name": "supportsInterface",
      "outputs": [
        {
          "internalType": "bool",
          "name": "",
          "type": "bool"
        }
      ],
      "stateMutability": "view",
      "type": "function"
    },
    {
      "inputs": [],
      "name": "symbol",
      "outputs": [
        {
          "internalType": "string",
          "name": "",
          "type": "string"
        }
      ],
      "stateMutability": "view",
      "type": "function"
    },
    {
      "inputs": [
        {
          "internalType": "uint256",
          "name": "tokenId",
          "type": "uint256"
        }
      ],
      "name": "tokenURI",
      "outputs": [
        {
          "internalType": "string",
          "name": "",
          "type": "string"
        }
      ],
      "stateMutability": "view",
      "type": "function"
    },
    {
      "inputs": [],
      "name": "totalSupply",
      "outputs": [
        {
          "internalType": "uint256",
          "name": "",
          "type": "uint256"
        }
      ],
      "stateMutability": "view",
      "type": "function"
    },
    {
      "inputs": [
        {
          "internalType": "address",
          "name": "from",
          "type": "address"
        },
        {
          "internalType": "address",
          "name": "to",
          "type": "address"
        },
        {
          "internalType": "uint256",
          "name": "tokenId",
          "type": "uint256"
        }
      ],
      "name": "transferFrom",
      "outputs": [],
      "stateMutability": "nonpayable",
      "type": "function"
    }
  ],
  "bytecode": "0x60806040526729a2241af62c00006008553480156200001d57600080fd5b506040518060400160405280601181526020017f426c6f636b636861696e42616c6c6f6f6e0000000000000000000000000000008152506040518060400160405280600581526020017f42424c4c4e0000000000000000000000000000000000000000000000000000008152508160009080519060200190620000a292919062000105565b508060019080519060200190620000bb92919062000105565b50505033600a60006101000a81548173ffffffffffffffffffffffffffffffffffffffff021916908373ffffffffffffffffffffffffffffffffffffffff1602179055506200021a565b8280546200011390620001b5565b90600052602060002090601f01602090048101928262000137576000855562000183565b82601f106200015257805160ff191683800117855562000183565b8280016001018555821562000183579182015b828111156200018257825182559160200191906001019062000165565b5b50905062000192919062000196565b5090565b5b80821115620001b157600081600090555060010162000197565b5090565b60006002820490506001821680620001ce57607f821691505b60208210811415620001e557620001e4620001eb565b5b50919050565b7f4e487b7100000000000000000000000000000000000000000000000000000000600052602260045260246000fd5b612d75806200022a6000396000f3fe6080604052600436106100e85760003560e01c80636352211e1161008a578063a22cb46511610059578063a22cb4651461030d578063b88d4fde14610336578063c87b56dd1461035f578063e985e9c51461039c576100e8565b80636352211e1461023857806370a08231146102755780637b6ac4ea146102b257806395d89b41146102e2576100e8565b8063095ea7b3116100c6578063095ea7b31461019257806318160ddd146101bb57806323b872dd146101e657806342842e0e1461020f576100e8565b806301ffc9a7146100ed57806306fdde031461012a578063081812fc14610155575b600080fd5b3480156100f957600080fd5b50610114600480360381019061010f9190611db6565b6103d9565b60405161012191906121df565b60405180910390f35b34801561013657600080fd5b5061013f6104bb565b60405161014c91906121fa565b60405180910390f35b34801561016157600080fd5b5061017c60048036038101906101779190611e08565b61054d565b6040516101899190612178565b60405180910390f35b34801561019e57600080fd5b506101b960048036038101906101b49190611d7a565b6105d2565b005b3480156101c757600080fd5b506101d06106ea565b6040516101dd919061243c565b60405180910390f35b3480156101f257600080fd5b5061020d60048036038101906102089190611c20565b6106f0565b005b34801561021b57600080fd5b5061023660048036038101906102319190611c20565b610750565b005b34801561024457600080fd5b5061025f600480360381019061025a9190611e08565b610770565b60405161026c9190612178565b60405180910390f35b34801561028157600080fd5b5061029c60048036038101906102979190611bbb565b610822565b6040516102a9919061243c565b60405180910390f35b6102cc60048036038101906102c79190611d26565b6108da565b6040516102d9919061243c565b60405180910390f35b3480156102ee57600080fd5b506102f76109d7565b60405161030491906121fa565b60405180910390f35b34801561031957600080fd5b50610334600480360381019061032f9190611cea565b610a69565b005b34801561034257600080fd5b5061035d60048036038101906103589190611c6f565b610bea565b005b34801561036b57600080fd5b5061038660048036038101906103819190611e08565b610c4c565b60405161039391906121fa565b60405180910390f35b3480156103a857600080fd5b506103c360048036038101906103be9190611be4565b610d9e565b6040516103d091906121df565b60405180910390f35b60007f80ac58cd000000000000000000000000000000000000000000000000000000007bffffffffffffffffffffffffffffffffffffffffffffffffffffffff1916827bffffffffffffffffffffffffffffffffffffffffffffffffffffffff191614806104a457507f5b5e139f000000000000000000000000000000000000000000000000000000007bffffffffffffffffffffffffffffffffffffffffffffffffffffffff1916827bffffffffffffffffffffffffffffffffffffffffffffffffffffffff1916145b806104b457506104b382610e32565b5b9050919050565b6060600080546104ca90612692565b80601f01602080910402602001604051908101604052809291908181526020018280546104f690612692565b80156105435780601f1061051857610100808354040283529160200191610543565b820191906000526020600020905b81548152906001019060200180831161052657829003601f168201915b5050505050905090565b600061055882610e9c565b610597576040517f08c379a000000000000000000000000000000000000000000000000000000000815260040161058e9061239c565b60405180910390fd5b6004600083815260200190815260200160002060009054906101000a900473ffffffffffffffffffffffffffffffffffffffff169050919050565b60006105dd82610770565b90508073ffffffffffffffffffffffffffffffffffffffff168373ffffffffffffffffffffffffffffffffffffffff16141561064e576040517f08c379a0000000000000000000000000000000000000000000000000000000008152600401610645906123fc565b60405180910390fd5b8073ffffffffffffffffffffffffffffffffffffffff1661066d610f08565b73ffffffffffffffffffffffffffffffffffffffff16148061069c575061069b81610696610f08565b610d9e565b5b6106db576040517f08c379a00000000000000000000000000000000000000000000000000000000081526004016106d2906122bc565b60405180910390fd5b6106e58383610f10565b505050565b60095481565b6107016106fb610f08565b82610fc9565b610740576040517f08c379a00000000000000000000000000000000000000000000000000000000081526004016107379061241c565b60405180910390fd5b61074b8383836110a7565b505050565b61076b83838360405180602001604052806000815250610bea565b505050565b6000806002600084815260200190815260200160002060009054906101000a900473ffffffffffffffffffffffffffffffffffffffff169050600073ffffffffffffffffffffffffffffffffffffffff168173ffffffffffffffffffffffffffffffffffffffff161415610819576040517f08c379a0000000000000000000000000000000000000000000000000000000008152600401610810906122fc565b60405180910390fd5b80915050919050565b60008073ffffffffffffffffffffffffffffffffffffffff168273ffffffffffffffffffffffffffffffffffffffff161415610893576040517f08c379a000000000000000000000000000000000000000000000000000000000815260040161088a906122dc565b60405180910390fd5b600360008373ffffffffffffffffffffffffffffffffffffffff1673ffffffffffffffffffffffffffffffffffffffff168152602001908152602001600020549050919050565b6000600854341015610921576040517f08c379a00000000000000000000000000000000000000000000000000000000081526004016109189061233c565b60405180910390fd5b600a60009054906101000a900473ffffffffffffffffffffffffffffffffffffffff1673ffffffffffffffffffffffffffffffffffffffff166108fc6008549081150290604051600060405180830381858888f1935050505015801561098b573d6000803e3d6000fd5b506109966007611303565b60016009546109a59190612521565b60098190555060006109b76007611319565b90506109c38482611327565b6109cd81846114f5565b8091505092915050565b6060600180546109e690612692565b80601f0160208091040260200160405190810160405280929190818152602001828054610a1290612692565b8015610a5f5780601f10610a3457610100808354040283529160200191610a5f565b820191906000526020600020905b815481529060010190602001808311610a4257829003601f168201915b5050505050905090565b610a71610f08565b73ffffffffffffffffffffffffffffffffffffffff168273ffffffffffffffffffffffffffffffffffffffff161415610adf576040517f08c379a0000000000000000000000000000000000000000000000000000000008152600401610ad69061227c565b60405180910390fd5b8060056000610aec610f08565b73ffffffffffffffffffffffffffffffffffffffff1673ffffffffffffffffffffffffffffffffffffffff16815260200190815260200160002060008473ffffffffffffffffffffffffffffffffffffffff1673ffffffffffffffffffffffffffffffffffffffff16815260200190815260200160002060006101000a81548160ff0219169083151502179055508173ffffffffffffffffffffffffffffffffffffffff16610b99610f08565b73ffffffffffffffffffffffffffffffffffffffff167f17307eab39ab6107e8899845ad3d59bd9653f200f220920489ca2b5937696c3183604051610bde91906121df565b60405180910390a35050565b610bfb610bf5610f08565b83610fc9565b610c3a576040517f08c379a0000000000000000000000000000000000000000000000000000000008152600401610c319061241c565b60405180910390fd5b610c4684848484611569565b50505050565b6060610c5782610e9c565b610c96576040517f08c379a0000000000000000000000000000000000000000000000000000000008152600401610c8d9061237c565b60405180910390fd5b6000600660008481526020019081526020016000208054610cb690612692565b80601f0160208091040260200160405190810160405280929190818152602001828054610ce290612692565b8015610d2f5780601f10610d0457610100808354040283529160200191610d2f565b820191906000526020600020905b815481529060010190602001808311610d1257829003601f168201915b505050505090506000610d406115c5565b9050600081511415610d56578192505050610d99565b600082511115610d8b578082604051602001610d73929190612154565b60405160208183030381529060405292505050610d99565b610d94846115dc565b925050505b919050565b6000600560008473ffffffffffffffffffffffffffffffffffffffff1673ffffffffffffffffffffffffffffffffffffffff16815260200190815260200160002060008373ffffffffffffffffffffffffffffffffffffffff1673ffffffffffffffffffffffffffffffffffffffff16815260200190815260200160002060009054906101000a900460ff16905092915050565b60007f01ffc9a7000000000000000000000000000000000000000000000000000000007bffffffffffffffffffffffffffffffffffffffffffffffffffffffff1916827bffffffffffffffffffffffffffffffffffffffffffffffffffffffff1916149050919050565b60008073ffffffffffffffffffffffffffffffffffffffff166002600084815260200190815260200160002060009054906101000a900473ffffffffffffffffffffffffffffffffffffffff1673ffffffffffffffffffffffffffffffffffffffff1614159050919050565b600033905090565b816004600083815260200190815260200160002060006101000a81548173ffffffffffffffffffffffffffffffffffffffff021916908373ffffffffffffffffffffffffffffffffffffffff160217905550808273ffffffffffffffffffffffffffffffffffffffff16610f8383610770565b73ffffffffffffffffffffffffffffffffffffffff167f8c5be1e5ebec7d5bd14f71427d1e84f3dd0314c0f7b2291e5b200ac8c7c3b92560405160405180910390a45050565b6000610fd482610e9c565b611013576040517f08c379a000000000000000000000000000000000000000000000000000000000815260040161100a9061229c565b60405180910390fd5b600061101e83610770565b90508073ffffffffffffffffffffffffffffffffffffffff168473ffffffffffffffffffffffffffffffffffffffff16148061108d57508373ffffffffffffffffffffffffffffffffffffffff166110758461054d565b73ffffffffffffffffffffffffffffffffffffffff16145b8061109e575061109d8185610d9e565b5b91505092915050565b8273ffffffffffffffffffffffffffffffffffffffff166110c782610770565b73ffffffffffffffffffffffffffffffffffffffff161461111d576040517f08c379a0000000000000000000000000000000000000000000000000000000008152600401611114906123bc565b60405180910390fd5b600073ffffffffffffffffffffffffffffffffffffffff168273ffffffffffffffffffffffffffffffffffffffff16141561118d576040517f08c379a00000000000000000000000000000000000000000000000000000000081526004016111849061225c565b60405180910390fd5b611198838383611683565b6111a3600082610f10565b6001600360008573ffffffffffffffffffffffffffffffffffffffff1673ffffffffffffffffffffffffffffffffffffffff16815260200190815260200160002060008282546111f391906125a8565b925050819055506001600360008473ffffffffffffffffffffffffffffffffffffffff1673ffffffffffffffffffffffffffffffffffffffff168152602001908152602001600020600082825461124a9190612521565b92505081905550816002600083815260200190815260200160002060006101000a81548173ffffffffffffffffffffffffffffffffffffffff021916908373ffffffffffffffffffffffffffffffffffffffff160217905550808273ffffffffffffffffffffffffffffffffffffffff168473ffffffffffffffffffffffffffffffffffffffff167fddf252ad1be2c89b69c2b068fc378daa952ba7f163c4a11628f55a4df523b3ef60405160405180910390a4505050565b6001816000016000828254019250508190555050565b600081600001549050919050565b600073ffffffffffffffffffffffffffffffffffffffff168273ffffffffffffffffffffffffffffffffffffffff161415611397576040517f08c379a000000000000000000000000000000000000000000000000000000000815260040161138e9061235c565b60405180910390fd5b6113a081610e9c565b156113e0576040517f08c379a00000000000000000000000000000000000000000000000000000000081526004016113d79061223c565b60405180910390fd5b6113ec60008383611683565b6001600360008473ffffffffffffffffffffffffffffffffffffffff1673ffffffffffffffffffffffffffffffffffffffff168152602001908152602001600020600082825461143c9190612521565b92505081905550816002600083815260200190815260200160002060006101000a81548173ffffffffffffffffffffffffffffffffffffffff021916908373ffffffffffffffffffffffffffffffffffffffff160217905550808273ffffffffffffffffffffffffffffffffffffffff16600073ffffffffffffffffffffffffffffffffffffffff167fddf252ad1be2c89b69c2b068fc378daa952ba7f163c4a11628f55a4df523b3ef60405160405180910390a45050565b6114fe82610e9c565b61153d576040517f08c379a00000000000000000000000000000000000000000000000000000000081526004016115349061231c565b60405180910390fd5b806006600084815260200190815260200160002090805190602001906115649291906119df565b505050565b6115748484846110a7565b61158084848484611688565b6115bf576040517f08c379a00000000000000000000000000000000000000000000000000000000081526004016115b69061221c565b60405180910390fd5b50505050565b606060405180602001604052806000815250905090565b60606115e782610e9c565b611626576040517f08c379a000000000000000000000000000000000000000000000000000000000815260040161161d906123dc565b60405180910390fd5b60006116306115c5565b90506000815111611650576040518060200160405280600081525061167b565b8061165a8461181f565b60405160200161166b929190612154565b6040516020818303038152906040525b915050919050565b505050565b60006116a98473ffffffffffffffffffffffffffffffffffffffff166119cc565b15611812578373ffffffffffffffffffffffffffffffffffffffff1663150b7a026116d2610f08565b8786866040518563ffffffff1660e01b81526004016116f49493929190612193565b602060405180830381600087803b15801561170e57600080fd5b505af192505050801561173f57506040513d601f19601f8201168201806040525081019061173c9190611ddf565b60015b6117c2573d806000811461176f576040519150601f19603f3d011682016040523d82523d6000602084013e611774565b606091505b506000815114156117ba576040517f08c379a00000000000000000000000000000000000000000000000000000000081526004016117b19061221c565b60405180910390fd5b805181602001fd5b63150b7a0260e01b7bffffffffffffffffffffffffffffffffffffffffffffffffffffffff1916817bffffffffffffffffffffffffffffffffffffffffffffffffffffffff191614915050611817565b600190505b949350505050565b60606000821415611867576040518060400160405280600181526020017f300000000000000000000000000000000000000000000000000000000000000081525090506119c7565b600082905060005b60008214611899578080611882906126f5565b915050600a826118929190612577565b915061186f565b60008167ffffffffffffffff8111156118db577f4e487b7100000000000000000000000000000000000000000000000000000000600052604160045260246000fd5b6040519080825280601f01601f19166020018201604052801561190d5781602001600182028036833780820191505090505b5090505b600085146119c05760018261192691906125a8565b9150600a85611935919061273e565b60306119419190612521565b60f81b81838151811061197d577f4e487b7100000000000000000000000000000000000000000000000000000000600052603260045260246000fd5b60200101907effffffffffffffffffffffffffffffffffffffffffffffffffffffffffffff1916908160001a905350600a856119b99190612577565b9450611911565b8093505050505b919050565b600080823b905060008111915050919050565b8280546119eb90612692565b90600052602060002090601f016020900481019282611a0d5760008555611a54565b82601f10611a2657805160ff1916838001178555611a54565b82800160010185558215611a54579182015b82811115611a53578251825591602001919060010190611a38565b5b509050611a619190611a65565b5090565b5b80821115611a7e576000816000905550600101611a66565b5090565b6000611a95611a908461247c565b612457565b905082815260208101848484011115611aad57600080fd5b611ab8848285612650565b509392505050565b6000611ad3611ace846124ad565b612457565b905082815260208101848484011115611aeb57600080fd5b611af6848285612650565b509392505050565b600081359050611b0d81612ce3565b92915050565b600081359050611b2281612cfa565b92915050565b600081359050611b3781612d11565b92915050565b600081519050611b4c81612d11565b92915050565b600082601f830112611b6357600080fd5b8135611b73848260208601611a82565b91505092915050565b600082601f830112611b8d57600080fd5b8135611b9d848260208601611ac0565b91505092915050565b600081359050611bb581612d28565b92915050565b600060208284031215611bcd57600080fd5b6000611bdb84828501611afe565b91505092915050565b60008060408385031215611bf757600080fd5b6000611c0585828601611afe565b9250506020611c1685828601611afe565b9150509250929050565b600080600060608486031215611c3557600080fd5b6000611c4386828701611afe565b9350506020611c5486828701611afe565b9250506040611c6586828701611ba6565b9150509250925092565b60008060008060808587031215611c8557600080fd5b6000611c9387828801611afe565b9450506020611ca487828801611afe565b9350506040611cb587828801611ba6565b925050606085013567ffffffffffffffff811115611cd257600080fd5b611cde87828801611b52565b91505092959194509250565b60008060408385031215611cfd57600080fd5b6000611d0b85828601611afe565b9250506020611d1c85828601611b13565b9150509250929050565b60008060408385031215611d3957600080fd5b6000611d4785828601611afe565b925050602083013567ffffffffffffffff811115611d6457600080fd5b611d7085828601611b7c565b9150509250929050565b60008060408385031215611d8d57600080fd5b6000611d9b85828601611afe565b9250506020611dac85828601611ba6565b9150509250929050565b600060208284031215611dc857600080fd5b6000611dd684828501611b28565b91505092915050565b600060208284031215611df157600080fd5b6000611dff84828501611b3d565b91505092915050565b600060208284031215611e1a57600080fd5b6000611e2884828501611ba6565b91505092915050565b611e3a816125dc565b82525050565b611e49816125ee565b82525050565b6000611e5a826124de565b611e6481856124f4565b9350611e7481856020860161265f565b611e7d8161282b565b840191505092915050565b6000611e93826124e9565b611e9d8185612505565b9350611ead81856020860161265f565b611eb68161282b565b840191505092915050565b6000611ecc826124e9565b611ed68185612516565b9350611ee681856020860161265f565b80840191505092915050565b6000611eff603283612505565b9150611f0a8261283c565b604082019050919050565b6000611f22601c83612505565b9150611f2d8261288b565b602082019050919050565b6000611f45602483612505565b9150611f50826128b4565b604082019050919050565b6000611f68601983612505565b9150611f7382612903565b602082019050919050565b6000611f8b602c83612505565b9150611f968261292c565b604082019050919050565b6000611fae603883612505565b9150611fb98261297b565b604082019050919050565b6000611fd1602a83612505565b9150611fdc826129ca565b604082019050919050565b6000611ff4602983612505565b9150611fff82612a19565b604082019050919050565b6000612017602e83612505565b915061202282612a68565b604082019050919050565b600061203a601583612505565b915061204582612ab7565b602082019050919050565b600061205d602083612505565b915061206882612ae0565b602082019050919050565b6000612080603183612505565b915061208b82612b09565b604082019050919050565b60006120a3602c83612505565b91506120ae82612b58565b604082019050919050565b60006120c6602983612505565b91506120d182612ba7565b604082019050919050565b60006120e9602f83612505565b91506120f482612bf6565b604082019050919050565b600061210c602183612505565b915061211782612c45565b604082019050919050565b600061212f603183612505565b915061213a82612c94565b604082019050919050565b61214e81612646565b82525050565b60006121608285611ec1565b915061216c8284611ec1565b91508190509392505050565b600060208201905061218d6000830184611e31565b92915050565b60006080820190506121a86000830187611e31565b6121b56020830186611e31565b6121c26040830185612145565b81810360608301526121d48184611e4f565b905095945050505050565b60006020820190506121f46000830184611e40565b92915050565b600060208201905081810360008301526122148184611e88565b905092915050565b6000602082019050818103600083015261223581611ef2565b9050919050565b6000602082019050818103600083015261225581611f15565b9050919050565b6000602082019050818103600083015261227581611f38565b9050919050565b6000602082019050818103600083015261229581611f5b565b9050919050565b600060208201905081810360008301526122b581611f7e565b9050919050565b600060208201905081810360008301526122d581611fa1565b9050919050565b600060208201905081810360008301526122f581611fc4565b9050919050565b6000602082019050818103600083015261231581611fe7565b9050919050565b600060208201905081810360008301526123358161200a565b9050919050565b600060208201905081810360008301526123558161202d565b9050919050565b6000602082019050818103600083015261237581612050565b9050919050565b6000602082019050818103600083015261239581612073565b9050919050565b600060208201905081810360008301526123b581612096565b9050919050565b600060208201905081810360008301526123d5816120b9565b9050919050565b600060208201905081810360008301526123f5816120dc565b9050919050565b60006020820190508181036000830152612415816120ff565b9050919050565b6000602082019050818103600083015261243581612122565b9050919050565b60006020820190506124516000830184612145565b92915050565b6000612461612472565b905061246d82826126c4565b919050565b6000604051905090565b600067ffffffffffffffff821115612497576124966127fc565b5b6124a08261282b565b9050602081019050919050565b600067ffffffffffffffff8211156124c8576124c76127fc565b5b6124d18261282b565b9050602081019050919050565b600081519050919050565b600081519050919050565b600082825260208201905092915050565b600082825260208201905092915050565b600081905092915050565b600061252c82612646565b915061253783612646565b9250827fffffffffffffffffffffffffffffffffffffffffffffffffffffffffffffffff0382111561256c5761256b61276f565b5b828201905092915050565b600061258282612646565b915061258d83612646565b92508261259d5761259c61279e565b5b828204905092915050565b60006125b382612646565b91506125be83612646565b9250828210156125d1576125d061276f565b5b828203905092915050565b60006125e782612626565b9050919050565b60008115159050919050565b60007fffffffff0000000000000000000000000000000000000000000000000000000082169050919050565b600073ffffffffffffffffffffffffffffffffffffffff82169050919050565b6000819050919050565b82818337600083830152505050565b60005b8381101561267d578082015181840152602081019050612662565b8381111561268c576000848401525b50505050565b600060028204905060018216806126aa57607f821691505b602082108114156126be576126bd6127cd565b5b50919050565b6126cd8261282b565b810181811067ffffffffffffffff821117156126ec576126eb6127fc565b5b80604052505050565b600061270082612646565b91507fffffffffffffffffffffffffffffffffffffffffffffffffffffffffffffffff8214156127335761273261276f565b5b600182019050919050565b600061274982612646565b915061275483612646565b9250826127645761276361279e565b5b828206905092915050565b7f4e487b7100000000000000000000000000000000000000000000000000000000600052601160045260246000fd5b7f4e487b7100000000000000000000000000000000000000000000000000000000600052601260045260246000fd5b7f4e487b7100000000000000000000000000000000000000000000000000000000600052602260045260246000fd5b7f4e487b7100000000000000000000000000000000000000000000000000000000600052604160045260246000fd5b6000601f19601f8301169050919050565b7f4552433732313a207472616e7366657220746f206e6f6e20455243373231526560008201527f63656976657220696d706c656d656e7465720000000000000000000000000000602082015250565b7f4552433732313a20746f6b656e20616c7265616479206d696e74656400000000600082015250565b7f4552433732313a207472616e7366657220746f20746865207a65726f2061646460008201527f7265737300000000000000000000000000000000000000000000000000000000602082015250565b7f4552433732313a20617070726f766520746f2063616c6c657200000000000000600082015250565b7f4552433732313a206f70657261746f7220717565727920666f72206e6f6e657860008201527f697374656e7420746f6b656e0000000000000000000000000000000000000000602082015250565b7f4552433732313a20617070726f76652063616c6c6572206973206e6f74206f7760008201527f6e6572206e6f7220617070726f76656420666f7220616c6c0000000000000000602082015250565b7f4552433732313a2062616c616e636520717565727920666f7220746865207a6560008201527f726f206164647265737300000000000000000000000000000000000000000000602082015250565b7f4552433732313a206f776e657220717565727920666f72206e6f6e657869737460008201527f656e7420746f6b656e0000000000000000000000000000000000000000000000602082015250565b7f45524337323155524953746f726167653a2055524920736574206f66206e6f6e60008201527f6578697374656e7420746f6b656e000000000000000000000000000000000000602082015250565b7f4d696e742066656520696e73756666696369656e740000000000000000000000600082015250565b7f4552433732313a206d696e7420746f20746865207a65726f2061646472657373600082015250565b7f45524337323155524953746f726167653a2055524920717565727920666f722060008201527f6e6f6e6578697374656e7420746f6b656e000000000000000000000000000000602082015250565b7f4552433732313a20617070726f76656420717565727920666f72206e6f6e657860008201527f697374656e7420746f6b656e0000000000000000000000000000000000000000602082015250565b7f4552433732313a207472616e73666572206f6620746f6b656e2074686174206960008201527f73206e6f74206f776e0000000000000000000000000000000000000000000000602082015250565b7f4552433732314d657461646174613a2055524920717565727920666f72206e6f60008201527f6e6578697374656e7420746f6b656e0000000000000000000000000000000000602082015250565b7f4552433732313a20617070726f76616c20746f2063757272656e74206f776e6560008201527f7200000000000000000000000000000000000000000000000000000000000000602082015250565b7f4552433732313a207472616e736665722063616c6c6572206973206e6f74206f60008201527f776e6572206e6f7220617070726f766564000000000000000000000000000000602082015250565b612cec816125dc565b8114612cf757600080fd5b50565b612d03816125ee565b8114612d0e57600080fd5b50565b612d1a816125fa565b8114612d2557600080fd5b50565b612d3181612646565b8114612d3c57600080fd5b5056fea2646970667358221220c4a4e89221addb5649c3bebe6bccd640bd48205df47f42bc0d939761cc2932fc64736f6c63430008040033",
  "linkReferences": {},
  "deployedLinkReferences": {}
}