{
  "_format": "hh-sol-artifact-1",
  "contractName": "Test1155",
  "sourceName": "contracts/TestERC1155.sol",
  "abi": [
    {
      "inputs": [],
      "stateMutability": "nonpayable",
      "type": "constructor"
    },
    {
      "anonymous": false,
      "inputs": [
        {
          "indexed": true,
          "internalType": "address",
          "name": "account",
          "type": "address"
        },
        {
          "indexed": true,
          "internalType": "address",
          "name": "operator",
          "type": "address"
        },
        {
          "indexed": false,
          "internalType": "bool",
          "name": "approved",
          "type": "bool"
        }
      ],
      "name": "ApprovalForAll",
      "type": "event"
    },
    {
      "anonymous": false,
      "inputs": [
        {
          "indexed": true,
          "internalType": "address",
          "name": "operator",
          "type": "address"
        },
        {
          "indexed": true,
          "internalType": "address",
          "name": "from",
          "type": "address"
        },
        {
          "indexed": true,
          "internalType": "address",
          "name": "to",
          "type": "address"
        },
        {
          "indexed": false,
          "internalType": "uint256[]",
          "name": "ids",
          "type": "uint256[]"
        },
        {
          "indexed": false,
          "internalType": "uint256[]",
          "name": "values",
          "type": "uint256[]"
        }
      ],
      "name": "TransferBatch",
      "type": "event"
    },
    {
      "anonymous": false,
      "inputs": [
        {
          "indexed": true,
          "internalType": "address",
          "name": "operator",
          "type": "address"
        },
        {
          "indexed": true,
          "internalType": "address",
          "name": "from",
          "type": "address"
        },
        {
          "indexed": true,
          "internalType": "address",
          "name": "to",
          "type": "address"
        },
        {
          "indexed": false,
          "internalType": "uint256",
          "name": "id",
          "type": "uint256"
        },
        {
          "indexed": false,
          "internalType": "uint256",
          "name": "value",
          "type": "uint256"
        }
      ],
      "name": "TransferSingle",
      "type": "event"
    },
    {
      "anonymous": false,
      "inputs": [
        {
          "indexed": false,
          "internalType": "string",
          "name": "value",
          "type": "string"
        },
        {
          "indexed": true,
          "internalType": "uint256",
          "name": "id",
          "type": "uint256"
        }
      ],
      "name": "URI",
      "type": "event"
    },
    {
      "inputs": [
        {
          "internalType": "address",
          "name": "account",
          "type": "address"
        },
        {
          "internalType": "uint256",
          "name": "id",
          "type": "uint256"
        }
      ],
      "name": "balanceOf",
      "outputs": [
        {
          "internalType": "uint256",
          "name": "",
          "type": "uint256"
        }
      ],
      "stateMutability": "view",
      "type": "function"
    },
    {
      "inputs": [
        {
          "internalType": "address[]",
          "name": "accounts",
          "type": "address[]"
        },
        {
          "internalType": "uint256[]",
          "name": "ids",
          "type": "uint256[]"
        }
      ],
      "name": "balanceOfBatch",
      "outputs": [
        {
          "internalType": "uint256[]",
          "name": "",
          "type": "uint256[]"
        }
      ],
      "stateMutability": "view",
      "type": "function"
    },
    {
      "inputs": [
        {
          "internalType": "address",
          "name": "account",
          "type": "address"
        },
        {
          "internalType": "address",
          "name": "operator",
          "type": "address"
        }
      ],
      "name": "isApprovedForAll",
      "outputs": [
        {
          "internalType": "bool",
          "name": "",
          "type": "bool"
        }
      ],
      "stateMutability": "view",
      "type": "function"
    },
    {
      "inputs": [
        {
          "internalType": "address",
          "name": "to",
          "type": "address"
        },
        {
          "internalType": "uint256",
          "name": "id",
          "type": "uint256"
        },
        {
          "internalType": "uint256",
          "name": "amount",
          "type": "uint256"
        }
      ],
      "name": "mint",
      "outputs": [],
      "stateMutability": "nonpayable",
      "type": "function"
    },
    {
      "inputs": [
        {
          "internalType": "address",
          "name": "from",
          "type": "address"
        },
        {
          "internalType": "address",
          "name": "to",
          "type": "address"
        },
        {
          "internalType": "uint256[]",
          "name": "ids",
          "type": "uint256[]"
        },
        {
          "internalType": "uint256[]",
          "name": "amounts",
          "type": "uint256[]"
        },
        {
          "internalType": "bytes",
          "name": "data",
          "type": "bytes"
        }
      ],
      "name": "safeBatchTransferFrom",
      "outputs": [],
      "stateMutability": "nonpayable",
      "type": "function"
    },
    {
      "inputs": [
        {
          "internalType": "address",
          "name": "from",
          "type": "address"
        },
        {
          "internalType": "address",
          "name": "to",
          "type": "address"
        },
        {
          "internalType": "uint256",
          "name": "id",
          "type": "uint256"
        },
        {
          "internalType": "uint256",
          "name": "amount",
          "type": "uint256"
        },
        {
          "internalType": "bytes",
          "name": "data",
          "type": "bytes"
        }
      ],
      "name": "safeTransferFrom",
      "outputs": [],
      "stateMutability": "nonpayable",
      "type": "function"
    },
    {
      "inputs": [
        {
          "internalType": "address",
          "name": "operator",
          "type": "address"
        },
        {
          "internalType": "bool",
          "name": "approved",
          "type": "bool"
        }
      ],
      "name": "setApprovalForAll",
      "outputs": [],
      "stateMutability": "nonpayable",
      "type": "function"
    },
    {
      "inputs": [
        {
          "internalType": "bytes4",
          "name": "interfaceId",
          "type": "bytes4"
        }
      ],
      "name": "supportsInterface",
      "outputs": [
        {
          "internalType": "bool",
          "name": "",
          "type": "bool"
        }
      ],
      "stateMutability": "view",
      "type": "function"
    },
    {
      "inputs": [
        {
          "internalType": "uint256",
          "name": "",
          "type": "uint256"
        }
      ],
      "name": "uri",
      "outputs": [
        {
          "internalType": "string",
          "name": "",
          "type": "string"
        }
      ],
      "stateMutability": "view",
      "type": "function"
    }
  ],
  "bytecode": "0x60806040523480156200001157600080fd5b506040518060400160405280600881526020017f546573743131353500000000000000000000000000000000000000000000000081525062000059816200006060201b60201c565b5062000191565b8060029080519060200190620000789291906200007c565b5050565b8280546200008a906200012c565b90600052602060002090601f016020900481019282620000ae5760008555620000fa565b82601f10620000c957805160ff1916838001178555620000fa565b82800160010185558215620000fa579182015b82811115620000f9578251825591602001919060010190620000dc565b5b5090506200010991906200010d565b5090565b5b80821115620001285760008160009055506001016200010e565b5090565b600060028204905060018216806200014557607f821691505b602082108114156200015c576200015b62000162565b5b50919050565b7f4e487b7100000000000000000000000000000000000000000000000000000000600052602260045260246000fd5b61286e80620001a16000396000f3fe608060405234801561001057600080fd5b50600436106100925760003560e01c80632eb2c2d6116100665780632eb2c2d6146101435780634e1273f41461015f578063a22cb4651461018f578063e985e9c5146101ab578063f242432a146101db57610092565b8062fdd58e1461009757806301ffc9a7146100c75780630e89341c146100f7578063156e29f614610127575b600080fd5b6100b160048036038101906100ac91906118c2565b6101f7565b6040516100be9190611fb1565b60405180910390f35b6100e160048036038101906100dc91906119cd565b6102c0565b6040516100ee9190611e14565b60405180910390f35b610111600480360381019061010c9190611a27565b6103a2565b60405161011e9190611e2f565b60405180910390f35b610141600480360381019061013c9190611902565b610436565b005b61015d6004803603810190610158919061171c565b610456565b005b61017960048036038101906101749190611955565b6104f7565b6040516101869190611dbb565b60405180910390f35b6101a960048036038101906101a49190611882565b610610565b005b6101c560048036038101906101c091906116dc565b610791565b6040516101d29190611e14565b60405180910390f35b6101f560048036038101906101f091906117eb565b610825565b005b60008073ffffffffffffffffffffffffffffffffffffffff168373ffffffffffffffffffffffffffffffffffffffff161415610268576040517f08c379a000000000000000000000000000000000000000000000000000000000815260040161025f90611e91565b60405180910390fd5b60008083815260200190815260200160002060008473ffffffffffffffffffffffffffffffffffffffff1673ffffffffffffffffffffffffffffffffffffffff16815260200190815260200160002054905092915050565b60007fd9b67a26000000000000000000000000000000000000000000000000000000007bffffffffffffffffffffffffffffffffffffffffffffffffffffffff1916827bffffffffffffffffffffffffffffffffffffffffffffffffffffffff1916148061038b57507f0e89341c000000000000000000000000000000000000000000000000000000007bffffffffffffffffffffffffffffffffffffffffffffffffffffffff1916827bffffffffffffffffffffffffffffffffffffffffffffffffffffffff1916145b8061039b575061039a826108c6565b5b9050919050565b6060600280546103b190612220565b80601f01602080910402602001604051908101604052809291908181526020018280546103dd90612220565b801561042a5780601f106103ff5761010080835404028352916020019161042a565b820191906000526020600020905b81548152906001019060200180831161040d57829003601f168201915b50505050509050919050565b61045183838360405180602001604052806000815250610930565b505050565b61045e610ac6565b73ffffffffffffffffffffffffffffffffffffffff168573ffffffffffffffffffffffffffffffffffffffff1614806104a457506104a38561049e610ac6565b610791565b5b6104e3576040517f08c379a00000000000000000000000000000000000000000000000000000000081526004016104da90611ef1565b60405180910390fd5b6104f08585858585610ace565b5050505050565b6060815183511461053d576040517f08c379a000000000000000000000000000000000000000000000000000000000815260040161053490611f51565b60405180910390fd5b6000835167ffffffffffffffff81111561055a57610559612359565b5b6040519080825280602002602001820160405280156105885781602001602082028036833780820191505090505b50905060005b8451811015610605576105d58582815181106105ad576105ac61232a565b5b60200260200101518583815181106105c8576105c761232a565b5b60200260200101516101f7565b8282815181106105e8576105e761232a565b5b602002602001018181525050806105fe90612283565b905061058e565b508091505092915050565b8173ffffffffffffffffffffffffffffffffffffffff1661062f610ac6565b73ffffffffffffffffffffffffffffffffffffffff161415610686576040517f08c379a000000000000000000000000000000000000000000000000000000000815260040161067d90611f31565b60405180910390fd5b8060016000610693610ac6565b73ffffffffffffffffffffffffffffffffffffffff1673ffffffffffffffffffffffffffffffffffffffff16815260200190815260200160002060008473ffffffffffffffffffffffffffffffffffffffff1673ffffffffffffffffffffffffffffffffffffffff16815260200190815260200160002060006101000a81548160ff0219169083151502179055508173ffffffffffffffffffffffffffffffffffffffff16610740610ac6565b73ffffffffffffffffffffffffffffffffffffffff167f17307eab39ab6107e8899845ad3d59bd9653f200f220920489ca2b5937696c31836040516107859190611e14565b60405180910390a35050565b6000600160008473ffffffffffffffffffffffffffffffffffffffff1673ffffffffffffffffffffffffffffffffffffffff16815260200190815260200160002060008373ffffffffffffffffffffffffffffffffffffffff1673ffffffffffffffffffffffffffffffffffffffff16815260200190815260200160002060009054906101000a900460ff16905092915050565b61082d610ac6565b73ffffffffffffffffffffffffffffffffffffffff168573ffffffffffffffffffffffffffffffffffffffff16148061087357506108728561086d610ac6565b610791565b5b6108b2576040517f08c379a00000000000000000000000000000000000000000000000000000000081526004016108a990611eb1565b60405180910390fd5b6108bf8585858585610de2565b5050505050565b60007f01ffc9a7000000000000000000000000000000000000000000000000000000007bffffffffffffffffffffffffffffffffffffffffffffffffffffffff1916827bffffffffffffffffffffffffffffffffffffffffffffffffffffffff1916149050919050565b600073ffffffffffffffffffffffffffffffffffffffff168473ffffffffffffffffffffffffffffffffffffffff1614156109a0576040517f08c379a000000000000000000000000000000000000000000000000000000000815260040161099790611f91565b60405180910390fd5b60006109aa610ac6565b90506109cb816000876109bc88611064565b6109c588611064565b876110de565b8260008086815260200190815260200160002060008773ffffffffffffffffffffffffffffffffffffffff1673ffffffffffffffffffffffffffffffffffffffff1681526020019081526020016000206000828254610a2a9190612114565b925050819055508473ffffffffffffffffffffffffffffffffffffffff16600073ffffffffffffffffffffffffffffffffffffffff168273ffffffffffffffffffffffffffffffffffffffff167fc3d58168c5ae7397731d063d5bbf3d657854427343f4c083240f7aacaa2d0f628787604051610aa8929190611fcc565b60405180910390a4610abf816000878787876110e6565b5050505050565b600033905090565b8151835114610b12576040517f08c379a0000000000000000000000000000000000000000000000000000000008152600401610b0990611f71565b60405180910390fd5b600073ffffffffffffffffffffffffffffffffffffffff168473ffffffffffffffffffffffffffffffffffffffff161415610b82576040517f08c379a0000000000000000000000000000000000000000000000000000000008152600401610b7990611ed1565b60405180910390fd5b6000610b8c610ac6565b9050610b9c8187878787876110de565b60005b8451811015610d4d576000858281518110610bbd57610bbc61232a565b5b602002602001015190506000858381518110610bdc57610bdb61232a565b5b60200260200101519050600080600084815260200190815260200160002060008b73ffffffffffffffffffffffffffffffffffffffff1673ffffffffffffffffffffffffffffffffffffffff16815260200190815260200160002054905081811015610c7d576040517f08c379a0000000000000000000000000000000000000000000000000000000008152600401610c7490611f11565b60405180910390fd5b81810360008085815260200190815260200160002060008c73ffffffffffffffffffffffffffffffffffffffff1673ffffffffffffffffffffffffffffffffffffffff168152602001908152602001600020819055508160008085815260200190815260200160002060008b73ffffffffffffffffffffffffffffffffffffffff1673ffffffffffffffffffffffffffffffffffffffff1681526020019081526020016000206000828254610d329190612114565b9250508190555050505080610d4690612283565b9050610b9f565b508473ffffffffffffffffffffffffffffffffffffffff168673ffffffffffffffffffffffffffffffffffffffff168273ffffffffffffffffffffffffffffffffffffffff167f4a39dc06d4c0dbc64b70af90fd698a233a518aa5d07e595d983b8c0526c8f7fb8787604051610dc4929190611ddd565b60405180910390a4610dda8187878787876112cd565b505050505050565b600073ffffffffffffffffffffffffffffffffffffffff168473ffffffffffffffffffffffffffffffffffffffff161415610e52576040517f08c379a0000000000000000000000000000000000000000000000000000000008152600401610e4990611ed1565b60405180910390fd5b6000610e5c610ac6565b9050610e7c818787610e6d88611064565b610e7688611064565b876110de565b600080600086815260200190815260200160002060008873ffffffffffffffffffffffffffffffffffffffff1673ffffffffffffffffffffffffffffffffffffffff16815260200190815260200160002054905083811015610f13576040517f08c379a0000000000000000000000000000000000000000000000000000000008152600401610f0a90611f11565b60405180910390fd5b83810360008087815260200190815260200160002060008973ffffffffffffffffffffffffffffffffffffffff1673ffffffffffffffffffffffffffffffffffffffff168152602001908152602001600020819055508360008087815260200190815260200160002060008873ffffffffffffffffffffffffffffffffffffffff1673ffffffffffffffffffffffffffffffffffffffff1681526020019081526020016000206000828254610fc89190612114565b925050819055508573ffffffffffffffffffffffffffffffffffffffff168773ffffffffffffffffffffffffffffffffffffffff168373ffffffffffffffffffffffffffffffffffffffff167fc3d58168c5ae7397731d063d5bbf3d657854427343f4c083240f7aacaa2d0f628888604051611045929190611fcc565b60405180910390a461105b8288888888886110e6565b50505050505050565b60606000600167ffffffffffffffff81111561108357611082612359565b5b6040519080825280602002602001820160405280156110b15781602001602082028036833780820191505090505b50905082816000815181106110c9576110c861232a565b5b60200260200101818152505080915050919050565b505050505050565b6111058473ffffffffffffffffffffffffffffffffffffffff166114b4565b156112c5578373ffffffffffffffffffffffffffffffffffffffff1663f23a6e6187878686866040518663ffffffff1660e01b815260040161114b959493929190611d61565b602060405180830381600087803b15801561116557600080fd5b505af192505050801561119657506040513d601f19601f8201168201806040525081019061119391906119fa565b60015b61123c576111a2612388565b806308c379a014156111ff57506111b7612746565b806111c25750611201565b806040517f08c379a00000000000000000000000000000000000000000000000000000000081526004016111f69190611e2f565b60405180910390fd5b505b6040517f08c379a000000000000000000000000000000000000000000000000000000000815260040161123390611e51565b60405180910390fd5b63f23a6e6160e01b7bffffffffffffffffffffffffffffffffffffffffffffffffffffffff1916817bffffffffffffffffffffffffffffffffffffffffffffffffffffffff1916146112c3576040517f08c379a00000000000000000000000000000000000000000000000000000000081526004016112ba90611e71565b60405180910390fd5b505b505050505050565b6112ec8473ffffffffffffffffffffffffffffffffffffffff166114b4565b156114ac578373ffffffffffffffffffffffffffffffffffffffff1663bc197c8187878686866040518663ffffffff1660e01b8152600401611332959493929190611cf9565b602060405180830381600087803b15801561134c57600080fd5b505af192505050801561137d57506040513d601f19601f8201168201806040525081019061137a91906119fa565b60015b61142357611389612388565b806308c379a014156113e6575061139e612746565b806113a957506113e8565b806040517f08c379a00000000000000000000000000000000000000000000000000000000081526004016113dd9190611e2f565b60405180910390fd5b505b6040517f08c379a000000000000000000000000000000000000000000000000000000000815260040161141a90611e51565b60405180910390fd5b63bc197c8160e01b7bffffffffffffffffffffffffffffffffffffffffffffffffffffffff1916817bffffffffffffffffffffffffffffffffffffffffffffffffffffffff1916146114aa576040517f08c379a00000000000000000000000000000000000000000000000000000000081526004016114a190611e71565b60405180910390fd5b505b505050505050565b600080823b905060008111915050919050565b60006114da6114d58461201a565b611ff5565b905080838252602082019050828560208602820111156114fd576114fc6123af565b5b60005b8581101561152d578161151388826115e9565b845260208401935060208301925050600181019050611500565b5050509392505050565b600061154a61154584612046565b611ff5565b9050808382526020820190508285602086028201111561156d5761156c6123af565b5b60005b8581101561159d578161158388826116c7565b845260208401935060208301925050600181019050611570565b5050509392505050565b60006115ba6115b584612072565b611ff5565b9050828152602081018484840111156115d6576115d56123b4565b5b6115e18482856121de565b509392505050565b6000813590506115f8816127dc565b92915050565b600082601f830112611613576116126123aa565b5b81356116238482602086016114c7565b91505092915050565b600082601f830112611641576116406123aa565b5b8135611651848260208601611537565b91505092915050565b600081359050611669816127f3565b92915050565b60008135905061167e8161280a565b92915050565b6000815190506116938161280a565b92915050565b600082601f8301126116ae576116ad6123aa565b5b81356116be8482602086016115a7565b91505092915050565b6000813590506116d681612821565b92915050565b600080604083850312156116f3576116f26123be565b5b6000611701858286016115e9565b9250506020611712858286016115e9565b9150509250929050565b600080600080600060a08688031215611738576117376123be565b5b6000611746888289016115e9565b9550506020611757888289016115e9565b945050604086013567ffffffffffffffff811115611778576117776123b9565b5b6117848882890161162c565b935050606086013567ffffffffffffffff8111156117a5576117a46123b9565b5b6117b18882890161162c565b925050608086013567ffffffffffffffff8111156117d2576117d16123b9565b5b6117de88828901611699565b9150509295509295909350565b600080600080600060a08688031215611807576118066123be565b5b6000611815888289016115e9565b9550506020611826888289016115e9565b9450506040611837888289016116c7565b9350506060611848888289016116c7565b925050608086013567ffffffffffffffff811115611869576118686123b9565b5b61187588828901611699565b9150509295509295909350565b60008060408385031215611899576118986123be565b5b60006118a7858286016115e9565b92505060206118b88582860161165a565b9150509250929050565b600080604083850312156118d9576118d86123be565b5b60006118e7858286016115e9565b92505060206118f8858286016116c7565b9150509250929050565b60008060006060848603121561191b5761191a6123be565b5b6000611929868287016115e9565b935050602061193a868287016116c7565b925050604061194b868287016116c7565b9150509250925092565b6000806040838503121561196c5761196b6123be565b5b600083013567ffffffffffffffff81111561198a576119896123b9565b5b611996858286016115fe565b925050602083013567ffffffffffffffff8111156119b7576119b66123b9565b5b6119c38582860161162c565b9150509250929050565b6000602082840312156119e3576119e26123be565b5b60006119f18482850161166f565b91505092915050565b600060208284031215611a1057611a0f6123be565b5b6000611a1e84828501611684565b91505092915050565b600060208284031215611a3d57611a3c6123be565b5b6000611a4b848285016116c7565b91505092915050565b6000611a608383611cdb565b60208301905092915050565b611a758161216a565b82525050565b6000611a86826120b3565b611a9081856120e1565b9350611a9b836120a3565b8060005b83811015611acc578151611ab38882611a54565b9750611abe836120d4565b925050600181019050611a9f565b5085935050505092915050565b611ae28161217c565b82525050565b6000611af3826120be565b611afd81856120f2565b9350611b0d8185602086016121ed565b611b16816123c3565b840191505092915050565b6000611b2c826120c9565b611b368185612103565b9350611b468185602086016121ed565b611b4f816123c3565b840191505092915050565b6000611b67603483612103565b9150611b72826123e1565b604082019050919050565b6000611b8a602883612103565b9150611b9582612430565b604082019050919050565b6000611bad602b83612103565b9150611bb88261247f565b604082019050919050565b6000611bd0602983612103565b9150611bdb826124ce565b604082019050919050565b6000611bf3602583612103565b9150611bfe8261251d565b604082019050919050565b6000611c16603283612103565b9150611c218261256c565b604082019050919050565b6000611c39602a83612103565b9150611c44826125bb565b604082019050919050565b6000611c5c602983612103565b9150611c678261260a565b604082019050919050565b6000611c7f602983612103565b9150611c8a82612659565b604082019050919050565b6000611ca2602883612103565b9150611cad826126a8565b604082019050919050565b6000611cc5602183612103565b9150611cd0826126f7565b604082019050919050565b611ce4816121d4565b82525050565b611cf3816121d4565b82525050565b600060a082019050611d0e6000830188611a6c565b611d1b6020830187611a6c565b8181036040830152611d2d8186611a7b565b90508181036060830152611d418185611a7b565b90508181036080830152611d558184611ae8565b90509695505050505050565b600060a082019050611d766000830188611a6c565b611d836020830187611a6c565b611d906040830186611cea565b611d9d6060830185611cea565b8181036080830152611daf8184611ae8565b90509695505050505050565b60006020820190508181036000830152611dd58184611a7b565b905092915050565b60006040820190508181036000830152611df78185611a7b565b90508181036020830152611e0b8184611a7b565b90509392505050565b6000602082019050611e296000830184611ad9565b92915050565b60006020820190508181036000830152611e498184611b21565b905092915050565b60006020820190508181036000830152611e6a81611b5a565b9050919050565b60006020820190508181036000830152611e8a81611b7d565b9050919050565b60006020820190508181036000830152611eaa81611ba0565b9050919050565b60006020820190508181036000830152611eca81611bc3565b9050919050565b60006020820190508181036000830152611eea81611be6565b9050919050565b60006020820190508181036000830152611f0a81611c09565b9050919050565b60006020820190508181036000830152611f2a81611c2c565b9050919050565b60006020820190508181036000830152611f4a81611c4f565b9050919050565b60006020820190508181036000830152611f6a81611c72565b9050919050565b60006020820190508181036000830152611f8a81611c95565b9050919050565b60006020820190508181036000830152611faa81611cb8565b9050919050565b6000602082019050611fc66000830184611cea565b92915050565b6000604082019050611fe16000830185611cea565b611fee6020830184611cea565b9392505050565b6000611fff612010565b905061200b8282612252565b919050565b6000604051905090565b600067ffffffffffffffff82111561203557612034612359565b5b602082029050602081019050919050565b600067ffffffffffffffff82111561206157612060612359565b5b602082029050602081019050919050565b600067ffffffffffffffff82111561208d5761208c612359565b5b612096826123c3565b9050602081019050919050565b6000819050602082019050919050565b600081519050919050565b600081519050919050565b600081519050919050565b6000602082019050919050565b600082825260208201905092915050565b600082825260208201905092915050565b600082825260208201905092915050565b600061211f826121d4565b915061212a836121d4565b9250827fffffffffffffffffffffffffffffffffffffffffffffffffffffffffffffffff0382111561215f5761215e6122cc565b5b828201905092915050565b6000612175826121b4565b9050919050565b60008115159050919050565b60007fffffffff0000000000000000000000000000000000000000000000000000000082169050919050565b600073ffffffffffffffffffffffffffffffffffffffff82169050919050565b6000819050919050565b82818337600083830152505050565b60005b8381101561220b5780820151818401526020810190506121f0565b8381111561221a576000848401525b50505050565b6000600282049050600182168061223857607f821691505b6020821081141561224c5761224b6122fb565b5b50919050565b61225b826123c3565b810181811067ffffffffffffffff8211171561227a57612279612359565b5b80604052505050565b600061228e826121d4565b91507fffffffffffffffffffffffffffffffffffffffffffffffffffffffffffffffff8214156122c1576122c06122cc565b5b600182019050919050565b7f4e487b7100000000000000000000000000000000000000000000000000000000600052601160045260246000fd5b7f4e487b7100000000000000000000000000000000000000000000000000000000600052602260045260246000fd5b7f4e487b7100000000000000000000000000000000000000000000000000000000600052603260045260246000fd5b7f4e487b7100000000000000000000000000000000000000000000000000000000600052604160045260246000fd5b600060033d11156123a75760046000803e6123a46000516123d4565b90505b90565b600080fd5b600080fd5b600080fd5b600080fd5b600080fd5b6000601f19601f8301169050919050565b60008160e01c9050919050565b7f455243313135353a207472616e7366657220746f206e6f6e204552433131353560008201527f526563656976657220696d706c656d656e746572000000000000000000000000602082015250565b7f455243313135353a204552433131353552656365697665722072656a6563746560008201527f6420746f6b656e73000000000000000000000000000000000000000000000000602082015250565b7f455243313135353a2062616c616e636520717565727920666f7220746865207a60008201527f65726f2061646472657373000000000000000000000000000000000000000000602082015250565b7f455243313135353a2063616c6c6572206973206e6f74206f776e6572206e6f7260008201527f20617070726f7665640000000000000000000000000000000000000000000000602082015250565b7f455243313135353a207472616e7366657220746f20746865207a65726f20616460008201527f6472657373000000000000000000000000000000000000000000000000000000602082015250565b7f455243313135353a207472616e736665722063616c6c6572206973206e6f742060008201527f6f776e6572206e6f7220617070726f7665640000000000000000000000000000602082015250565b7f455243313135353a20696e73756666696369656e742062616c616e636520666f60008201527f72207472616e7366657200000000000000000000000000000000000000000000602082015250565b7f455243313135353a2073657474696e6720617070726f76616c2073746174757360008201527f20666f722073656c660000000000000000000000000000000000000000000000602082015250565b7f455243313135353a206163636f756e747320616e6420696473206c656e67746860008201527f206d69736d617463680000000000000000000000000000000000000000000000602082015250565b7f455243313135353a2069647320616e6420616d6f756e7473206c656e6774682060008201527f6d69736d61746368000000000000000000000000000000000000000000000000602082015250565b7f455243313135353a206d696e7420746f20746865207a65726f2061646472657360008201527f7300000000000000000000000000000000000000000000000000000000000000602082015250565b600060443d1015612756576127d9565b61275e612010565b60043d036004823e80513d602482011167ffffffffffffffff821117156127865750506127d9565b808201805167ffffffffffffffff8111156127a457505050506127d9565b80602083010160043d0385018111156127c15750505050506127d9565b6127d082602001850186612252565b82955050505050505b90565b6127e58161216a565b81146127f057600080fd5b50565b6127fc8161217c565b811461280757600080fd5b50565b61281381612188565b811461281e57600080fd5b50565b61282a816121d4565b811461283557600080fd5b5056fea2646970667358221220f66862dd026aa48b8307bc0d7961f18c6ac53a73fbf77e1fc55eafccce281cbc64736f6c63430008070033",
  "linkReferences": {},
  "deployedLinkReferences": {}
}