{
  "_format": "hh-sol-artifact-1",
  "contractName": "TokenVesting",
  "sourceName": "contracts/TokenVesting.sol",
  "abi": [
    {
      "anonymous": false,
      "inputs": [
        {
          "indexed": true,
          "internalType": "address",
          "name": "previousOwner",
          "type": "address"
        },
        {
          "indexed": true,
          "internalType": "address",
          "name": "newOwner",
          "type": "address"
        }
      ],
      "name": "OwnershipTransferred",
      "type": "event"
    },
    {
      "anonymous": false,
      "inputs": [
        {
          "indexed": false,
          "internalType": "address",
          "name": "token",
          "type": "address"
        }
      ],
      "name": "TokenVestingRevoked",
      "type": "event"
    },
    {
      "anonymous": false,
      "inputs": [
        {
          "indexed": false,
          "internalType": "address",
          "name": "token",
          "type": "address"
        },
        {
          "indexed": false,
          "internalType": "uint256",
          "name": "amount",
          "type": "uint256"
        }
      ],
      "name": "TokensReleased",
      "type": "event"
    },
    {
      "inputs": [],
      "name": "cliff",
      "outputs": [
        {
          "internalType": "uint256",
          "name": "",
          "type": "uint256"
        }
      ],
      "stateMutability": "view",
      "type": "function"
    },
    {
      "inputs": [],
      "name": "getBeneficiary",
      "outputs": [
        {
          "internalType": "address",
          "name": "",
          "type": "address"
        }
      ],
      "stateMutability": "view",
      "type": "function"
    },
    {
      "inputs": [],
      "name": "getDuration",
      "outputs": [
        {
          "internalType": "uint256",
          "name": "",
          "type": "uint256"
        }
      ],
      "stateMutability": "view",
      "type": "function"
    },
    {
      "inputs": [],
      "name": "getRevocable",
      "outputs": [
        {
          "internalType": "bool",
          "name": "",
          "type": "bool"
        }
      ],
      "stateMutability": "view",
      "type": "function"
    },
    {
      "inputs": [],
      "name": "getStart",
      "outputs": [
        {
          "internalType": "uint256",
          "name": "",
          "type": "uint256"
        }
      ],
      "stateMutability": "view",
      "type": "function"
    },
    {
      "inputs": [
        {
          "internalType": "address",
          "name": "beneficiary",
          "type": "address"
        },
        {
          "internalType": "uint256",
          "name": "start",
          "type": "uint256"
        },
        {
          "internalType": "uint256",
          "name": "cliffDuration",
          "type": "uint256"
        },
        {
          "internalType": "uint256",
          "name": "duration",
          "type": "uint256"
        },
        {
          "internalType": "bool",
          "name": "revocable",
          "type": "bool"
        }
      ],
      "name": "initialize",
      "outputs": [],
      "stateMutability": "nonpayable",
      "type": "function"
    },
    {
      "inputs": [],
      "name": "owner",
      "outputs": [
        {
          "internalType": "address",
          "name": "",
          "type": "address"
        }
      ],
      "stateMutability": "view",
      "type": "function"
    },
    {
      "inputs": [
        {
          "internalType": "contract IERC20",
          "name": "token",
          "type": "address"
        }
      ],
      "name": "releasableAmount",
      "outputs": [
        {
          "internalType": "uint256",
          "name": "",
          "type": "uint256"
        }
      ],
      "stateMutability": "view",
      "type": "function"
    },
    {
      "inputs": [
        {
          "internalType": "contract IERC20",
          "name": "token",
          "type": "address"
        }
      ],
      "name": "release",
      "outputs": [],
      "stateMutability": "nonpayable",
      "type": "function"
    },
    {
      "inputs": [
        {
          "internalType": "address",
          "name": "token",
          "type": "address"
        }
      ],
      "name": "released",
      "outputs": [
        {
          "internalType": "uint256",
          "name": "",
          "type": "uint256"
        }
      ],
      "stateMutability": "view",
      "type": "function"
    },
    {
      "inputs": [],
      "name": "renounceOwnership",
      "outputs": [],
      "stateMutability": "nonpayable",
      "type": "function"
    },
    {
      "inputs": [
        {
          "internalType": "contract IERC20",
          "name": "token",
          "type": "address"
        }
      ],
      "name": "revoke",
      "outputs": [],
      "stateMutability": "nonpayable",
      "type": "function"
    },
    {
      "inputs": [
        {
          "internalType": "address",
          "name": "token",
          "type": "address"
        }
      ],
      "name": "revoked",
      "outputs": [
        {
          "internalType": "bool",
          "name": "",
          "type": "bool"
        }
      ],
      "stateMutability": "view",
      "type": "function"
    },
    {
      "inputs": [
        {
          "internalType": "address",
          "name": "newOwner",
          "type": "address"
        }
      ],
      "name": "transferOwnership",
      "outputs": [],
      "stateMutability": "nonpayable",
      "type": "function"
    },
    {
      "inputs": [
        {
          "internalType": "contract IERC20",
          "name": "token",
          "type": "address"
        }
      ],
      "name": "vestedAmount",
      "outputs": [
        {
          "internalType": "uint256",
          "name": "",
          "type": "uint256"
        }
      ],
      "stateMutability": "view",
      "type": "function"
    }
  ],
  "bytecode": "0x608060405234801561001057600080fd5b5061002d61002261003260201b60201c565b61003a60201b60201c565b6100fe565b600033905090565b60008060009054906101000a900473ffffffffffffffffffffffffffffffffffffffff169050816000806101000a81548173ffffffffffffffffffffffffffffffffffffffff021916908373ffffffffffffffffffffffffffffffffffffffff1602179055508173ffffffffffffffffffffffffffffffffffffffff168173ffffffffffffffffffffffffffffffffffffffff167f8be0079c531659141344cd1fd0a4f28419497f9722a3daafe3b4186f6b6457e060405160405180910390a35050565b611d478061010d6000396000f3fe608060405234801561001057600080fd5b50600436106100f55760003560e01c80638da5cb5b11610097578063c5292c6711610066578063c5292c6714610260578063c6ec20671461027e578063f2fde38b1461029c578063fa01dc06146102b8576100f5565b80638da5cb5b146101d85780639852595c146101f65780639a63adc014610226578063ad2e8c9b14610242576100f5565b8063384711cc116100d3578063384711cc14610164578063565a2e2c14610194578063715018a6146101b257806374a8f103146101bc576100f5565b806313d033c0146100fa5780631726cbc8146101185780631916558714610148575b600080fd5b6101026102e8565b60405161010f919061175c565b60405180910390f35b610132600480360381019061012d91906112af565b6102f2565b60405161013f919061175c565b60405180910390f35b610162600480360381019061015d91906112af565b610304565b005b61017e600480360381019061017991906112af565b61046c565b60405161018b919061175c565b60405180910390f35b61019c61047e565b6040516101a9919061155b565b60405180910390f35b6101ba6104a8565b005b6101d660048036038101906101d191906112af565b610530565b005b6101e06107f9565b6040516101ed919061155b565b60405180910390f35b610210600480360381019061020b91906111da565b610822565b60405161021d919061175c565b60405180910390f35b610240600480360381019061023b9190611207565b61086b565b005b61024a610a30565b604051610257919061175c565b60405180910390f35b610268610a3a565b604051610275919061175c565b60405180910390f35b610286610a44565b604051610293919061159f565b60405180910390f35b6102b660048036038101906102b191906111da565b610a5b565b005b6102d260048036038101906102cd91906111da565b610b53565b6040516102df919061159f565b60405180910390f35b6000600254905090565b60006102fd82610ba9565b9050919050565b600061030f82610ba9565b905060008111610354576040517f08c379a000000000000000000000000000000000000000000000000000000000815260040161034b9061165c565b60405180910390fd5b80600660008473ffffffffffffffffffffffffffffffffffffffff1673ffffffffffffffffffffffffffffffffffffffff1681526020019081526020016000205461039f91906117a9565b600660008473ffffffffffffffffffffffffffffffffffffffff1673ffffffffffffffffffffffffffffffffffffffff1681526020019081526020016000208190555061042f600160009054906101000a900473ffffffffffffffffffffffffffffffffffffffff16828473ffffffffffffffffffffffffffffffffffffffff16610c059092919063ffffffff16565b7fc7798891864187665ac6dd119286e44ec13f014527aeeb2b8eb3fd413df931798282604051610460929190611576565b60405180910390a15050565b600061047782610c8b565b9050919050565b6000600160009054906101000a900473ffffffffffffffffffffffffffffffffffffffff16905090565b6104b0610e23565b73ffffffffffffffffffffffffffffffffffffffff166104ce6107f9565b73ffffffffffffffffffffffffffffffffffffffff1614610524576040517f08c379a000000000000000000000000000000000000000000000000000000000815260040161051b906116bc565b60405180910390fd5b61052e6000610e2b565b565b610538610e23565b73ffffffffffffffffffffffffffffffffffffffff166105566107f9565b73ffffffffffffffffffffffffffffffffffffffff16146105ac576040517f08c379a00000000000000000000000000000000000000000000000000000000081526004016105a3906116bc565b60405180910390fd5b600560009054906101000a900460ff166105fb576040517f08c379a00000000000000000000000000000000000000000000000000000000081526004016105f2906115dc565b60405180910390fd5b600760008273ffffffffffffffffffffffffffffffffffffffff1673ffffffffffffffffffffffffffffffffffffffff16815260200190815260200160002060009054906101000a900460ff1615610688576040517f08c379a000000000000000000000000000000000000000000000000000000000815260040161067f9061173c565b60405180910390fd5b60008173ffffffffffffffffffffffffffffffffffffffff166370a08231306040518263ffffffff1660e01b81526004016106c3919061155b565b60206040518083038186803b1580156106db57600080fd5b505afa1580156106ef573d6000803e3d6000fd5b505050506040513d601f19601f8201168201806040525081019061071391906112dc565b9050600061072083610ba9565b905060008183610730919061188a565b90506001600760008673ffffffffffffffffffffffffffffffffffffffff1673ffffffffffffffffffffffffffffffffffffffff16815260200190815260200160002060006101000a81548160ff0219169083151502179055506107bc6107956107f9565b828673ffffffffffffffffffffffffffffffffffffffff16610c059092919063ffffffff16565b7f39983c6d4d174a7aee564f449d4a5c3c7ac9649d72b7793c56901183996f8af6846040516107eb919061155b565b60405180910390a150505050565b60008060009054906101000a900473ffffffffffffffffffffffffffffffffffffffff16905090565b6000600660008373ffffffffffffffffffffffffffffffffffffffff1673ffffffffffffffffffffffffffffffffffffffff168152602001908152602001600020549050919050565b600073ffffffffffffffffffffffffffffffffffffffff168573ffffffffffffffffffffffffffffffffffffffff1614156108db576040517f08c379a00000000000000000000000000000000000000000000000000000000081526004016108d29061161c565b60405180910390fd5b8183111561091e576040517f08c379a00000000000000000000000000000000000000000000000000000000081526004016109159061167c565b60405180910390fd5b60008211610961576040517f08c379a00000000000000000000000000000000000000000000000000000000081526004016109589061171c565b60405180910390fd5b42828561096e91906117a9565b116109ae576040517f08c379a00000000000000000000000000000000000000000000000000000000081526004016109a5906115fc565b60405180910390fd5b84600160006101000a81548173ffffffffffffffffffffffffffffffffffffffff021916908373ffffffffffffffffffffffffffffffffffffffff16021790555080600560006101000a81548160ff021916908315150217905550816004819055508284610a1c91906117a9565b600281905550836003819055505050505050565b6000600454905090565b6000600354905090565b6000600560009054906101000a900460ff16905090565b610a63610e23565b73ffffffffffffffffffffffffffffffffffffffff16610a816107f9565b73ffffffffffffffffffffffffffffffffffffffff1614610ad7576040517f08c379a0000000000000000000000000000000000000000000000000000000008152600401610ace906116bc565b60405180910390fd5b600073ffffffffffffffffffffffffffffffffffffffff168173ffffffffffffffffffffffffffffffffffffffff161415610b47576040517f08c379a0000000000000000000000000000000000000000000000000000000008152600401610b3e9061163c565b60405180910390fd5b610b5081610e2b565b50565b6000600760008373ffffffffffffffffffffffffffffffffffffffff1673ffffffffffffffffffffffffffffffffffffffff16815260200190815260200160002060009054906101000a900460ff169050919050565b6000600660008373ffffffffffffffffffffffffffffffffffffffff1673ffffffffffffffffffffffffffffffffffffffff16815260200190815260200160002054610bf483610c8b565b610bfe919061188a565b9050919050565b610c868363a9059cbb60e01b8484604051602401610c24929190611576565b604051602081830303815290604052907bffffffffffffffffffffffffffffffffffffffffffffffffffffffff19166020820180517bffffffffffffffffffffffffffffffffffffffffffffffffffffffff8381831617835250505050610eef565b505050565b6000808273ffffffffffffffffffffffffffffffffffffffff166370a08231306040518263ffffffff1660e01b8152600401610cc7919061155b565b60206040518083038186803b158015610cdf57600080fd5b505afa158015610cf3573d6000803e3d6000fd5b505050506040513d601f19601f82011682018060405250810190610d1791906112dc565b90506000600660008573ffffffffffffffffffffffffffffffffffffffff1673ffffffffffffffffffffffffffffffffffffffff1681526020019081526020016000205482610d6691906117a9565b9050600254421015610d7d57600092505050610e1e565b600454600354610d8d91906117a9565b42101580610de45750600760008573ffffffffffffffffffffffffffffffffffffffff1673ffffffffffffffffffffffffffffffffffffffff16815260200190815260200160002060009054906101000a900460ff165b15610df3578092505050610e1e565b60045460035442610e04919061188a565b82610e0f9190611830565b610e1991906117ff565b925050505b919050565b600033905090565b60008060009054906101000a900473ffffffffffffffffffffffffffffffffffffffff169050816000806101000a81548173ffffffffffffffffffffffffffffffffffffffff021916908373ffffffffffffffffffffffffffffffffffffffff1602179055508173ffffffffffffffffffffffffffffffffffffffff168173ffffffffffffffffffffffffffffffffffffffff167f8be0079c531659141344cd1fd0a4f28419497f9722a3daafe3b4186f6b6457e060405160405180910390a35050565b6000610f51826040518060400160405280602081526020017f5361666545524332303a206c6f772d6c6576656c2063616c6c206661696c65648152508573ffffffffffffffffffffffffffffffffffffffff16610fb69092919063ffffffff16565b9050600081511115610fb15780806020019051810190610f719190611282565b610fb0576040517f08c379a0000000000000000000000000000000000000000000000000000000008152600401610fa7906116fc565b60405180910390fd5b5b505050565b6060610fc58484600085610fce565b90509392505050565b606082471015611013576040517f08c379a000000000000000000000000000000000000000000000000000000000815260040161100a9061169c565b60405180910390fd5b61101c856110e2565b61105b576040517f08c379a0000000000000000000000000000000000000000000000000000000008152600401611052906116dc565b60405180910390fd5b6000808673ffffffffffffffffffffffffffffffffffffffff1685876040516110849190611544565b60006040518083038185875af1925050503d80600081146110c1576040519150601f19603f3d011682016040523d82523d6000602084013e6110c6565b606091505b50915091506110d68282866110f5565b92505050949350505050565b600080823b905060008111915050919050565b6060831561110557829050611155565b6000835111156111185782518084602001fd5b816040517f08c379a000000000000000000000000000000000000000000000000000000000815260040161114c91906115ba565b60405180910390fd5b9392505050565b60008135905061116b81611cb5565b92915050565b60008135905061118081611ccc565b92915050565b60008151905061119581611ccc565b92915050565b6000813590506111aa81611ce3565b92915050565b6000813590506111bf81611cfa565b92915050565b6000815190506111d481611cfa565b92915050565b6000602082840312156111f0576111ef6119a9565b5b60006111fe8482850161115c565b91505092915050565b600080600080600060a08688031215611223576112226119a9565b5b60006112318882890161115c565b9550506020611242888289016111b0565b9450506040611253888289016111b0565b9350506060611264888289016111b0565b925050608061127588828901611171565b9150509295509295909350565b600060208284031215611298576112976119a9565b5b60006112a684828501611186565b91505092915050565b6000602082840312156112c5576112c46119a9565b5b60006112d38482850161119b565b91505092915050565b6000602082840312156112f2576112f16119a9565b5b6000611300848285016111c5565b91505092915050565b611312816118be565b82525050565b611321816118d0565b82525050565b600061133282611777565b61133c818561178d565b935061134c818560208601611918565b80840191505092915050565b600061136382611782565b61136d8185611798565b935061137d818560208601611918565b611386816119ae565b840191505092915050565b600061139e601b83611798565b91506113a9826119bf565b602082019050919050565b60006113c1602f83611798565b91506113cc826119e8565b604082019050919050565b60006113e4602d83611798565b91506113ef82611a37565b604082019050919050565b6000611407602683611798565b915061141282611a86565b604082019050919050565b600061142a601f83611798565b915061143582611ad5565b602082019050919050565b600061144d602b83611798565b915061145882611afe565b604082019050919050565b6000611470602683611798565b915061147b82611b4d565b604082019050919050565b6000611493602083611798565b915061149e82611b9c565b602082019050919050565b60006114b6601d83611798565b91506114c182611bc5565b602082019050919050565b60006114d9602a83611798565b91506114e482611bee565b604082019050919050565b60006114fc601b83611798565b915061150782611c3d565b602082019050919050565b600061151f602383611798565b915061152a82611c66565b604082019050919050565b61153e8161190e565b82525050565b60006115508284611327565b915081905092915050565b60006020820190506115706000830184611309565b92915050565b600060408201905061158b6000830185611309565b6115986020830184611535565b9392505050565b60006020820190506115b46000830184611318565b92915050565b600060208201905081810360008301526115d48184611358565b905092915050565b600060208201905081810360008301526115f581611391565b9050919050565b60006020820190508181036000830152611615816113b4565b9050919050565b60006020820190508181036000830152611635816113d7565b9050919050565b60006020820190508181036000830152611655816113fa565b9050919050565b600060208201905081810360008301526116758161141d565b9050919050565b6000602082019050818103600083015261169581611440565b9050919050565b600060208201905081810360008301526116b581611463565b9050919050565b600060208201905081810360008301526116d581611486565b9050919050565b600060208201905081810360008301526116f5816114a9565b9050919050565b60006020820190508181036000830152611715816114cc565b9050919050565b60006020820190508181036000830152611735816114ef565b9050919050565b6000602082019050818103600083015261175581611512565b9050919050565b60006020820190506117716000830184611535565b92915050565b600081519050919050565b600081519050919050565b600081905092915050565b600082825260208201905092915050565b60006117b48261190e565b91506117bf8361190e565b9250827fffffffffffffffffffffffffffffffffffffffffffffffffffffffffffffffff038211156117f4576117f361194b565b5b828201905092915050565b600061180a8261190e565b91506118158361190e565b9250826118255761182461197a565b5b828204905092915050565b600061183b8261190e565b91506118468361190e565b9250817fffffffffffffffffffffffffffffffffffffffffffffffffffffffffffffffff048311821515161561187f5761187e61194b565b5b828202905092915050565b60006118958261190e565b91506118a08361190e565b9250828210156118b3576118b261194b565b5b828203905092915050565b60006118c9826118ee565b9050919050565b60008115159050919050565b60006118e7826118be565b9050919050565b600073ffffffffffffffffffffffffffffffffffffffff82169050919050565b6000819050919050565b60005b8381101561193657808201518184015260208101905061191b565b83811115611945576000848401525b50505050565b7f4e487b7100000000000000000000000000000000000000000000000000000000600052601160045260246000fd5b7f4e487b7100000000000000000000000000000000000000000000000000000000600052601260045260246000fd5b600080fd5b6000601f19601f8301169050919050565b7f546f6b656e56657374696e673a2063616e6e6f74207265766f6b650000000000600082015250565b7f546f6b656e56657374696e673a2066696e616c2074696d65206973206265666f60008201527f72652063757272656e742074696d650000000000000000000000000000000000602082015250565b7f546f6b656e56657374696e673a2062656e65666963696172792069732074686560008201527f207a65726f206164647265737300000000000000000000000000000000000000602082015250565b7f4f776e61626c653a206e6577206f776e657220697320746865207a65726f206160008201527f6464726573730000000000000000000000000000000000000000000000000000602082015250565b7f546f6b656e56657374696e673a206e6f20746f6b656e73206172652064756500600082015250565b7f546f6b656e56657374696e673a20636c696666206973206c6f6e67657220746860008201527f616e206475726174696f6e000000000000000000000000000000000000000000602082015250565b7f416464726573733a20696e73756666696369656e742062616c616e636520666f60008201527f722063616c6c0000000000000000000000000000000000000000000000000000602082015250565b7f4f776e61626c653a2063616c6c6572206973206e6f7420746865206f776e6572600082015250565b7f416464726573733a2063616c6c20746f206e6f6e2d636f6e7472616374000000600082015250565b7f5361666545524332303a204552433230206f7065726174696f6e20646964206e60008201527f6f74207375636365656400000000000000000000000000000000000000000000602082015250565b7f546f6b656e56657374696e673a206475726174696f6e20697320300000000000600082015250565b7f546f6b656e56657374696e673a20746f6b656e20616c7265616479207265766f60008201527f6b65640000000000000000000000000000000000000000000000000000000000602082015250565b611cbe816118be565b8114611cc957600080fd5b50565b611cd5816118d0565b8114611ce057600080fd5b50565b611cec816118dc565b8114611cf757600080fd5b50565b611d038161190e565b8114611d0e57600080fd5b5056fea264697066735822122048c8ee800305aa22b45a710181404f27d3944dcdb9f3e8acbb59b4b50154292864736f6c63430008070033",
  "linkReferences": {},
  "deployedLinkReferences": {}
}