{
  "_format": "hh-sol-artifact-1",
  "contractName": "ERC721MerkleDistributor",
  "sourceName": "contracts/ERC721MerkleDistributor.sol",
  "abi": [
    {
      "inputs": [
        {
          "internalType": "bytes32",
          "name": "merkleRoot_",
          "type": "bytes32"
        },
        {
          "internalType": "string",
          "name": "name_",
          "type": "string"
        },
        {
          "internalType": "string",
          "name": "symbol_",
          "type": "string"
        },
        {
          "internalType": "uint256",
          "name": "maxCount_",
          "type": "uint256"
        }
      ],
      "stateMutability": "nonpayable",
      "type": "constructor"
    },
    {
      "anonymous": false,
      "inputs": [
        {
          "indexed": true,
          "internalType": "address",
          "name": "owner",
          "type": "address"
        },
        {
          "indexed": true,
          "internalType": "address",
          "name": "approved",
          "type": "address"
        },
        {
          "indexed": true,
          "internalType": "uint256",
          "name": "tokenId",
          "type": "uint256"
        }
      ],
      "name": "Approval",
      "type": "event"
    },
    {
      "anonymous": false,
      "inputs": [
        {
          "indexed": true,
          "internalType": "address",
          "name": "owner",
          "type": "address"
        },
        {
          "indexed": true,
          "internalType": "address",
          "name": "operator",
          "type": "address"
        },
        {
          "indexed": false,
          "internalType": "bool",
          "name": "approved",
          "type": "bool"
        }
      ],
      "name": "ApprovalForAll",
      "type": "event"
    },
    {
      "anonymous": false,
      "inputs": [
        {
          "indexed": false,
          "internalType": "uint256",
          "name": "index",
          "type": "uint256"
        },
        {
          "indexed": false,
          "internalType": "address",
          "name": "account",
          "type": "address"
        },
        {
          "indexed": false,
          "internalType": "uint256",
          "name": "amount",
          "type": "uint256"
        }
      ],
      "name": "Claimed",
      "type": "event"
    },
    {
      "anonymous": false,
      "inputs": [
        {
          "indexed": true,
          "internalType": "address",
          "name": "from",
          "type": "address"
        },
        {
          "indexed": true,
          "internalType": "address",
          "name": "to",
          "type": "address"
        },
        {
          "indexed": true,
          "internalType": "uint256",
          "name": "tokenId",
          "type": "uint256"
        }
      ],
      "name": "Transfer",
      "type": "event"
    },
    {
      "inputs": [],
      "name": "MAX_COUNT",
      "outputs": [
        {
          "internalType": "uint256",
          "name": "",
          "type": "uint256"
        }
      ],
      "stateMutability": "view",
      "type": "function"
    },
    {
      "inputs": [
        {
          "internalType": "address",
          "name": "to",
          "type": "address"
        },
        {
          "internalType": "uint256",
          "name": "tokenId",
          "type": "uint256"
        }
      ],
      "name": "approve",
      "outputs": [],
      "stateMutability": "nonpayable",
      "type": "function"
    },
    {
      "inputs": [
        {
          "internalType": "address",
          "name": "owner",
          "type": "address"
        }
      ],
      "name": "balanceOf",
      "outputs": [
        {
          "internalType": "uint256",
          "name": "",
          "type": "uint256"
        }
      ],
      "stateMutability": "view",
      "type": "function"
    },
    {
      "inputs": [
        {
          "internalType": "uint256",
          "name": "index",
          "type": "uint256"
        },
        {
          "internalType": "address",
          "name": "account",
          "type": "address"
        },
        {
          "internalType": "uint256",
          "name": "tokenId",
          "type": "uint256"
        },
        {
          "internalType": "bytes32[]",
          "name": "merkleProof",
          "type": "bytes32[]"
        }
      ],
      "name": "claim",
      "outputs": [],
      "stateMutability": "nonpayable",
      "type": "function"
    },
    {
      "inputs": [
        {
          "internalType": "uint256",
          "name": "tokenId",
          "type": "uint256"
        }
      ],
      "name": "getApproved",
      "outputs": [
        {
          "internalType": "address",
          "name": "",
          "type": "address"
        }
      ],
      "stateMutability": "view",
      "type": "function"
    },
    {
      "inputs": [
        {
          "internalType": "address",
          "name": "owner",
          "type": "address"
        },
        {
          "internalType": "address",
          "name": "operator",
          "type": "address"
        }
      ],
      "name": "isApprovedForAll",
      "outputs": [
        {
          "internalType": "bool",
          "name": "",
          "type": "bool"
        }
      ],
      "stateMutability": "view",
      "type": "function"
    },
    {
      "inputs": [
        {
          "internalType": "uint256",
          "name": "index",
          "type": "uint256"
        }
      ],
      "name": "isClaimed",
      "outputs": [
        {
          "internalType": "bool",
          "name": "",
          "type": "bool"
        }
      ],
      "stateMutability": "view",
      "type": "function"
    },
    {
      "inputs": [],
      "name": "merkleRoot",
      "outputs": [
        {
          "internalType": "bytes32",
          "name": "",
          "type": "bytes32"
        }
      ],
      "stateMutability": "view",
      "type": "function"
    },
    {
      "inputs": [],
      "name": "name",
      "outputs": [
        {
          "internalType": "string",
          "name": "",
          "type": "string"
        }
      ],
      "stateMutability": "view",
      "type": "function"
    },
    {
      "inputs": [
        {
          "internalType": "uint256",
          "name": "tokenId",
          "type": "uint256"
        }
      ],
      "name": "ownerOf",
      "outputs": [
        {
          "internalType": "address",
          "name": "",
          "type": "address"
        }
      ],
      "stateMutability": "view",
      "type": "function"
    },
    {
      "inputs": [
        {
          "internalType": "address",
          "name": "from",
          "type": "address"
        },
        {
          "internalType": "address",
          "name": "to",
          "type": "address"
        },
        {
          "internalType": "uint256",
          "name": "tokenId",
          "type": "uint256"
        }
      ],
      "name": "safeTransferFrom",
      "outputs": [],
      "stateMutability": "nonpayable",
      "type": "function"
    },
    {
      "inputs": [
        {
          "internalType": "address",
          "name": "from",
          "type": "address"
        },
        {
          "internalType": "address",
          "name": "to",
          "type": "address"
        },
        {
          "internalType": "uint256",
          "name": "tokenId",
          "type": "uint256"
        },
        {
          "internalType": "bytes",
          "name": "_data",
          "type": "bytes"
        }
      ],
      "name": "safeTransferFrom",
      "outputs": [],
      "stateMutability": "nonpayable",
      "type": "function"
    },
    {
      "inputs": [
        {
          "internalType": "address",
          "name": "operator",
          "type": "address"
        },
        {
          "internalType": "bool",
          "name": "approved",
          "type": "bool"
        }
      ],
      "name": "setApprovalForAll",
      "outputs": [],
      "stateMutability": "nonpayable",
      "type": "function"
    },
    {
      "inputs": [
        {
          "internalType": "bytes4",
          "name": "interfaceId",
          "type": "bytes4"
        }
      ],
      "name": "supportsInterface",
      "outputs": [
        {
          "internalType": "bool",
          "name": "",
          "type": "bool"
        }
      ],
      "stateMutability": "view",
      "type": "function"
    },
    {
      "inputs": [],
      "name": "symbol",
      "outputs": [
        {
          "internalType": "string",
          "name": "",
          "type": "string"
        }
      ],
      "stateMutability": "view",
      "type": "function"
    },
    {
      "inputs": [
        {
          "internalType": "uint256",
          "name": "tokenId",
          "type": "uint256"
        }
      ],
      "name": "tokenURI",
      "outputs": [
        {
          "internalType": "string",
          "name": "",
          "type": "string"
        }
      ],
      "stateMutability": "view",
      "type": "function"
    },
    {
      "inputs": [
        {
          "internalType": "address",
          "name": "from",
          "type": "address"
        },
        {
          "internalType": "address",
          "name": "to",
          "type": "address"
        },
        {
          "internalType": "uint256",
          "name": "tokenId",
          "type": "uint256"
        }
      ],
      "name": "transferFrom",
      "outputs": [],
      "stateMutability": "nonpayable",
      "type": "function"
    }
  ],
  "bytecode": "0x60a06040523480156200001157600080fd5b50604051620033ab380380620033ab8339818101604052810190620000379190620001e2565b828281600090805190602001906200005192919062000086565b5080600190805190602001906200006a92919062000086565b505050836080818152505080600681905550505050506200045e565b82805462000094906200033b565b90600052602060002090601f016020900481019282620000b8576000855562000104565b82601f10620000d357805160ff191683800117855562000104565b8280016001018555821562000104579182015b8281111562000103578251825591602001919060010190620000e6565b5b50905062000113919062000117565b5090565b5b808211156200013257600081600090555060010162000118565b5090565b60006200014d6200014784620002bb565b62000292565b9050828152602081018484840111156200016c576200016b6200040a565b5b6200017984828562000305565b509392505050565b60008151905062000192816200042a565b92915050565b600082601f830112620001b057620001af62000405565b5b8151620001c284826020860162000136565b91505092915050565b600081519050620001dc8162000444565b92915050565b60008060008060808587031215620001ff57620001fe62000414565b5b60006200020f8782880162000181565b945050602085015167ffffffffffffffff8111156200023357620002326200040f565b5b620002418782880162000198565b935050604085015167ffffffffffffffff8111156200026557620002646200040f565b5b620002738782880162000198565b92505060606200028687828801620001cb565b91505092959194509250565b60006200029e620002b1565b9050620002ac828262000371565b919050565b6000604051905090565b600067ffffffffffffffff821115620002d957620002d8620003d6565b5b620002e48262000419565b9050602081019050919050565b6000819050919050565b6000819050919050565b60005b838110156200032557808201518184015260208101905062000308565b8381111562000335576000848401525b50505050565b600060028204905060018216806200035457607f821691505b602082108114156200036b576200036a620003a7565b5b50919050565b6200037c8262000419565b810181811067ffffffffffffffff821117156200039e576200039d620003d6565b5b80604052505050565b7f4e487b7100000000000000000000000000000000000000000000000000000000600052602260045260246000fd5b7f4e487b7100000000000000000000000000000000000000000000000000000000600052604160045260246000fd5b600080fd5b600080fd5b600080fd5b600080fd5b6000601f19601f8301169050919050565b6200043581620002f1565b81146200044157600080fd5b50565b6200044f81620002fb565b81146200045b57600080fd5b50565b608051612f2a62000481600039600081816107b001526108e20152612f2a6000f3fe608060405234801561001057600080fd5b506004361061010b5760003560e01c80636352211e116100a25780639e34070f116100715780639e34070f146102b8578063a22cb465146102e8578063b88d4fde14610304578063c87b56dd14610320578063e985e9c5146103505761010b565b80636352211e1461021c57806370a082311461024c57806377163c1d1461027c57806395d89b411461029a5761010b565b806323b872dd116100de57806323b872dd146101aa5780632e7ba6ef146101c65780632eb4a7ab146101e257806342842e0e146102005761010b565b806301ffc9a71461011057806306fdde0314610140578063081812fc1461015e578063095ea7b31461018e575b600080fd5b61012a60048036038101906101259190611d37565b610380565b60405161013791906122b1565b60405180910390f35b610148610462565b60405161015591906122e7565b60405180910390f35b61017860048036038101906101739190611d91565b6104f4565b604051610185919061224a565b60405180910390f35b6101a860048036038101906101a39190611cf7565b610579565b005b6101c460048036038101906101bf9190611be1565b610691565b005b6101e060048036038101906101db9190611dbe565b6106f1565b005b6101ea6108e0565b6040516101f791906122cc565b60405180910390f35b61021a60048036038101906102159190611be1565b610904565b005b61023660048036038101906102319190611d91565b610924565b604051610243919061224a565b60405180910390f35b61026660048036038101906102619190611b74565b6109d6565b6040516102739190612529565b60405180910390f35b610284610a8e565b6040516102919190612529565b60405180910390f35b6102a2610a94565b6040516102af91906122e7565b60405180910390f35b6102d260048036038101906102cd9190611d91565b610b26565b6040516102df91906122b1565b60405180910390f35b61030260048036038101906102fd9190611cb7565b610b7c565b005b61031e60048036038101906103199190611c34565b610cfd565b005b61033a60048036038101906103359190611d91565b610d5f565b60405161034791906122e7565b60405180910390f35b61036a60048036038101906103659190611ba1565b610e06565b60405161037791906122b1565b60405180910390f35b60007f80ac58cd000000000000000000000000000000000000000000000000000000007bffffffffffffffffffffffffffffffffffffffffffffffffffffffff1916827bffffffffffffffffffffffffffffffffffffffffffffffffffffffff1916148061044b57507f5b5e139f000000000000000000000000000000000000000000000000000000007bffffffffffffffffffffffffffffffffffffffffffffffffffffffff1916827bffffffffffffffffffffffffffffffffffffffffffffffffffffffff1916145b8061045b575061045a82610e9a565b5b9050919050565b6060600080546104719061278f565b80601f016020809104026020016040519081016040528092919081815260200182805461049d9061278f565b80156104ea5780601f106104bf576101008083540402835291602001916104ea565b820191906000526020600020905b8154815290600101906020018083116104cd57829003601f168201915b5050505050905090565b60006104ff82610f04565b61053e576040517f08c379a000000000000000000000000000000000000000000000000000000000815260040161053590612489565b60405180910390fd5b6004600083815260200190815260200160002060009054906101000a900473ffffffffffffffffffffffffffffffffffffffff169050919050565b600061058482610924565b90508073ffffffffffffffffffffffffffffffffffffffff168373ffffffffffffffffffffffffffffffffffffffff1614156105f5576040517f08c379a00000000000000000000000000000000000000000000000000000000081526004016105ec906124e9565b60405180910390fd5b8073ffffffffffffffffffffffffffffffffffffffff16610614610f70565b73ffffffffffffffffffffffffffffffffffffffff16148061064357506106428161063d610f70565b610e06565b5b610682576040517f08c379a0000000000000000000000000000000000000000000000000000000008152600401610679906123e9565b60405180910390fd5b61068c8383610f78565b505050565b6106a261069c610f70565b82611031565b6106e1576040517f08c379a00000000000000000000000000000000000000000000000000000000081526004016106d890612509565b60405180910390fd5b6106ec83838361110f565b505050565b6106fa85610b26565b1561073a576040517f08c379a000000000000000000000000000000000000000000000000000000000815260040161073190612349565b60405180910390fd5b60008585856040516020016107519392919061220d565b6040516020818303038152906040528051906020012090506107d5838380806020026020016040519081016040528093929190818152602001838360200280828437600081840152601f19601f820116905080830192505050505050507f00000000000000000000000000000000000000000000000000000000000000008361136b565b610814576040517f08c379a000000000000000000000000000000000000000000000000000000000815260040161080b906123c9565b60405180910390fd5b61081d86611421565b610827858561147b565b8473ffffffffffffffffffffffffffffffffffffffff1661084785610924565b73ffffffffffffffffffffffffffffffffffffffff161461089d576040517f08c379a000000000000000000000000000000000000000000000000000000000815260040161089490612449565b60405180910390fd5b7f4ec90e965519d92681267467f775ada5bd214aa92c0dc93d90a5e880ce9ed0268686866040516108d093929190612544565b60405180910390a1505050505050565b7f000000000000000000000000000000000000000000000000000000000000000081565b61091f83838360405180602001604052806000815250610cfd565b505050565b6000806002600084815260200190815260200160002060009054906101000a900473ffffffffffffffffffffffffffffffffffffffff169050600073ffffffffffffffffffffffffffffffffffffffff168173ffffffffffffffffffffffffffffffffffffffff1614156109cd576040517f08c379a00000000000000000000000000000000000000000000000000000000081526004016109c490612429565b60405180910390fd5b80915050919050565b60008073ffffffffffffffffffffffffffffffffffffffff168273ffffffffffffffffffffffffffffffffffffffff161415610a47576040517f08c379a0000000000000000000000000000000000000000000000000000000008152600401610a3e90612409565b60405180910390fd5b600360008373ffffffffffffffffffffffffffffffffffffffff1673ffffffffffffffffffffffffffffffffffffffff168152602001908152602001600020549050919050565b60065481565b606060018054610aa39061278f565b80601f0160208091040260200160405190810160405280929190818152602001828054610acf9061278f565b8015610b1c5780601f10610af157610100808354040283529160200191610b1c565b820191906000526020600020905b815481529060010190602001808311610aff57829003601f168201915b5050505050905090565b60008061010083610b37919061266a565b9050600061010084610b499190612873565b90506000600760008481526020019081526020016000205490506000826001901b90508081831614945050505050919050565b610b84610f70565b73ffffffffffffffffffffffffffffffffffffffff168273ffffffffffffffffffffffffffffffffffffffff161415610bf2576040517f08c379a0000000000000000000000000000000000000000000000000000000008152600401610be990612389565b60405180910390fd5b8060056000610bff610f70565b73ffffffffffffffffffffffffffffffffffffffff1673ffffffffffffffffffffffffffffffffffffffff16815260200190815260200160002060008473ffffffffffffffffffffffffffffffffffffffff1673ffffffffffffffffffffffffffffffffffffffff16815260200190815260200160002060006101000a81548160ff0219169083151502179055508173ffffffffffffffffffffffffffffffffffffffff16610cac610f70565b73ffffffffffffffffffffffffffffffffffffffff167f17307eab39ab6107e8899845ad3d59bd9653f200f220920489ca2b5937696c3183604051610cf191906122b1565b60405180910390a35050565b610d0e610d08610f70565b83611031565b610d4d576040517f08c379a0000000000000000000000000000000000000000000000000000000008152600401610d4490612509565b60405180910390fd5b610d5984848484611499565b50505050565b6060610d6a82610f04565b610da9576040517f08c379a0000000000000000000000000000000000000000000000000000000008152600401610da0906124c9565b60405180910390fd5b6000610db36114f5565b90506000815111610dd35760405180602001604052806000815250610dfe565b80610ddd8461150c565b604051602001610dee9291906121e9565b6040516020818303038152906040525b915050919050565b6000600560008473ffffffffffffffffffffffffffffffffffffffff1673ffffffffffffffffffffffffffffffffffffffff16815260200190815260200160002060008373ffffffffffffffffffffffffffffffffffffffff1673ffffffffffffffffffffffffffffffffffffffff16815260200190815260200160002060009054906101000a900460ff16905092915050565b60007f01ffc9a7000000000000000000000000000000000000000000000000000000007bffffffffffffffffffffffffffffffffffffffffffffffffffffffff1916827bffffffffffffffffffffffffffffffffffffffffffffffffffffffff1916149050919050565b60008073ffffffffffffffffffffffffffffffffffffffff166002600084815260200190815260200160002060009054906101000a900473ffffffffffffffffffffffffffffffffffffffff1673ffffffffffffffffffffffffffffffffffffffff1614159050919050565b600033905090565b816004600083815260200190815260200160002060006101000a81548173ffffffffffffffffffffffffffffffffffffffff021916908373ffffffffffffffffffffffffffffffffffffffff160217905550808273ffffffffffffffffffffffffffffffffffffffff16610feb83610924565b73ffffffffffffffffffffffffffffffffffffffff167f8c5be1e5ebec7d5bd14f71427d1e84f3dd0314c0f7b2291e5b200ac8c7c3b92560405160405180910390a45050565b600061103c82610f04565b61107b576040517f08c379a0000000000000000000000000000000000000000000000000000000008152600401611072906123a9565b60405180910390fd5b600061108683610924565b90508073ffffffffffffffffffffffffffffffffffffffff168473ffffffffffffffffffffffffffffffffffffffff1614806110f557508373ffffffffffffffffffffffffffffffffffffffff166110dd846104f4565b73ffffffffffffffffffffffffffffffffffffffff16145b8061110657506111058185610e06565b5b91505092915050565b8273ffffffffffffffffffffffffffffffffffffffff1661112f82610924565b73ffffffffffffffffffffffffffffffffffffffff1614611185576040517f08c379a000000000000000000000000000000000000000000000000000000000815260040161117c906124a9565b60405180910390fd5b600073ffffffffffffffffffffffffffffffffffffffff168273ffffffffffffffffffffffffffffffffffffffff1614156111f5576040517f08c379a00000000000000000000000000000000000000000000000000000000081526004016111ec90612369565b60405180910390fd5b61120083838361166d565b61120b600082610f78565b6001600360008573ffffffffffffffffffffffffffffffffffffffff1673ffffffffffffffffffffffffffffffffffffffff168152602001908152602001600020600082825461125b919061269b565b925050819055506001600360008473ffffffffffffffffffffffffffffffffffffffff1673ffffffffffffffffffffffffffffffffffffffff16815260200190815260200160002060008282546112b29190612614565b92505081905550816002600083815260200190815260200160002060006101000a81548173ffffffffffffffffffffffffffffffffffffffff021916908373ffffffffffffffffffffffffffffffffffffffff160217905550808273ffffffffffffffffffffffffffffffffffffffff168473ffffffffffffffffffffffffffffffffffffffff167fddf252ad1be2c89b69c2b068fc378daa952ba7f163c4a11628f55a4df523b3ef60405160405180910390a4505050565b60008082905060005b855181101561141357600086828151811061139257611391612931565b5b602002602001015190508083116113d35782816040516020016113b69291906121bd565b6040516020818303038152906040528051906020012092506113ff565b80836040516020016113e69291906121bd565b6040516020818303038152906040528051906020012092505b50808061140b906127f2565b915050611374565b508381149150509392505050565b600061010082611431919061266a565b90506000610100836114439190612873565b9050806001901b6007600084815260200190815260200160002054176007600084815260200190815260200160002081905550505050565b611495828260405180602001604052806000815250611672565b5050565b6114a484848461110f565b6114b0848484846116cd565b6114ef576040517f08c379a00000000000000000000000000000000000000000000000000000000081526004016114e690612309565b60405180910390fd5b50505050565b606060405180602001604052806000815250905090565b60606000821415611554576040518060400160405280600181526020017f30000000000000000000000000000000000000000000000000000000000000008152509050611668565b600082905060005b6000821461158657808061156f906127f2565b915050600a8261157f919061266a565b915061155c565b60008167ffffffffffffffff8111156115a2576115a1612960565b5b6040519080825280601f01601f1916602001820160405280156115d45781602001600182028036833780820191505090505b5090505b60008514611661576001826115ed919061269b565b9150600a856115fc9190612873565b60306116089190612614565b60f81b81838151811061161e5761161d612931565b5b60200101907effffffffffffffffffffffffffffffffffffffffffffffffffffffffffffff1916908160001a905350600a8561165a919061266a565b94506115d8565b8093505050505b919050565b505050565b61167c8383611864565b61168960008484846116cd565b6116c8576040517f08c379a00000000000000000000000000000000000000000000000000000000081526004016116bf90612309565b60405180910390fd5b505050565b60006116ee8473ffffffffffffffffffffffffffffffffffffffff16611a32565b15611857578373ffffffffffffffffffffffffffffffffffffffff1663150b7a02611717610f70565b8786866040518563ffffffff1660e01b81526004016117399493929190612265565b602060405180830381600087803b15801561175357600080fd5b505af192505050801561178457506040513d601f19601f820116820180604052508101906117819190611d64565b60015b611807573d80600081146117b4576040519150601f19603f3d011682016040523d82523d6000602084013e6117b9565b606091505b506000815114156117ff576040517f08c379a00000000000000000000000000000000000000000000000000000000081526004016117f690612309565b60405180910390fd5b805181602001fd5b63150b7a0260e01b7bffffffffffffffffffffffffffffffffffffffffffffffffffffffff1916817bffffffffffffffffffffffffffffffffffffffffffffffffffffffff19161491505061185c565b600190505b949350505050565b600073ffffffffffffffffffffffffffffffffffffffff168273ffffffffffffffffffffffffffffffffffffffff1614156118d4576040517f08c379a00000000000000000000000000000000000000000000000000000000081526004016118cb90612469565b60405180910390fd5b6118dd81610f04565b1561191d576040517f08c379a000000000000000000000000000000000000000000000000000000000815260040161191490612329565b60405180910390fd5b6119296000838361166d565b6001600360008473ffffffffffffffffffffffffffffffffffffffff1673ffffffffffffffffffffffffffffffffffffffff16815260200190815260200160002060008282546119799190612614565b92505081905550816002600083815260200190815260200160002060006101000a81548173ffffffffffffffffffffffffffffffffffffffff021916908373ffffffffffffffffffffffffffffffffffffffff160217905550808273ffffffffffffffffffffffffffffffffffffffff16600073ffffffffffffffffffffffffffffffffffffffff167fddf252ad1be2c89b69c2b068fc378daa952ba7f163c4a11628f55a4df523b3ef60405160405180910390a45050565b600080823b905060008111915050919050565b6000611a58611a53846125a0565b61257b565b905082815260208101848484011115611a7457611a7361299e565b5b611a7f84828561274d565b509392505050565b600081359050611a9681612e98565b92915050565b60008083601f840112611ab257611ab1612994565b5b8235905067ffffffffffffffff811115611acf57611ace61298f565b5b602083019150836020820283011115611aeb57611aea612999565b5b9250929050565b600081359050611b0181612eaf565b92915050565b600081359050611b1681612ec6565b92915050565b600081519050611b2b81612ec6565b92915050565b600082601f830112611b4657611b45612994565b5b8135611b56848260208601611a45565b91505092915050565b600081359050611b6e81612edd565b92915050565b600060208284031215611b8a57611b896129a8565b5b6000611b9884828501611a87565b91505092915050565b60008060408385031215611bb857611bb76129a8565b5b6000611bc685828601611a87565b9250506020611bd785828601611a87565b9150509250929050565b600080600060608486031215611bfa57611bf96129a8565b5b6000611c0886828701611a87565b9350506020611c1986828701611a87565b9250506040611c2a86828701611b5f565b9150509250925092565b60008060008060808587031215611c4e57611c4d6129a8565b5b6000611c5c87828801611a87565b9450506020611c6d87828801611a87565b9350506040611c7e87828801611b5f565b925050606085013567ffffffffffffffff811115611c9f57611c9e6129a3565b5b611cab87828801611b31565b91505092959194509250565b60008060408385031215611cce57611ccd6129a8565b5b6000611cdc85828601611a87565b9250506020611ced85828601611af2565b9150509250929050565b60008060408385031215611d0e57611d0d6129a8565b5b6000611d1c85828601611a87565b9250506020611d2d85828601611b5f565b9150509250929050565b600060208284031215611d4d57611d4c6129a8565b5b6000611d5b84828501611b07565b91505092915050565b600060208284031215611d7a57611d796129a8565b5b6000611d8884828501611b1c565b91505092915050565b600060208284031215611da757611da66129a8565b5b6000611db584828501611b5f565b91505092915050565b600080600080600060808688031215611dda57611dd96129a8565b5b6000611de888828901611b5f565b9550506020611df988828901611a87565b9450506040611e0a88828901611b5f565b935050606086013567ffffffffffffffff811115611e2b57611e2a6129a3565b5b611e3788828901611a9c565b92509250509295509295909350565b611e4f816126cf565b82525050565b611e66611e61826126cf565b61283b565b82525050565b611e75816126e1565b82525050565b611e84816126ed565b82525050565b611e9b611e96826126ed565b61284d565b82525050565b6000611eac826125d1565b611eb681856125e7565b9350611ec681856020860161275c565b611ecf816129ad565b840191505092915050565b6000611ee5826125dc565b611eef81856125f8565b9350611eff81856020860161275c565b611f08816129ad565b840191505092915050565b6000611f1e826125dc565b611f288185612609565b9350611f3881856020860161275c565b80840191505092915050565b6000611f516032836125f8565b9150611f5c826129cb565b604082019050919050565b6000611f74601c836125f8565b9150611f7f82612a1a565b602082019050919050565b6000611f976028836125f8565b9150611fa282612a43565b604082019050919050565b6000611fba6024836125f8565b9150611fc582612a92565b604082019050919050565b6000611fdd6019836125f8565b9150611fe882612ae1565b602082019050919050565b6000612000602c836125f8565b915061200b82612b0a565b604082019050919050565b60006120236021836125f8565b915061202e82612b59565b604082019050919050565b60006120466038836125f8565b915061205182612ba8565b604082019050919050565b6000612069602a836125f8565b915061207482612bf7565b604082019050919050565b600061208c6029836125f8565b915061209782612c46565b604082019050919050565b60006120af6023836125f8565b91506120ba82612c95565b604082019050919050565b60006120d26020836125f8565b91506120dd82612ce4565b602082019050919050565b60006120f5602c836125f8565b915061210082612d0d565b604082019050919050565b60006121186029836125f8565b915061212382612d5c565b604082019050919050565b600061213b602f836125f8565b915061214682612dab565b604082019050919050565b600061215e6021836125f8565b915061216982612dfa565b604082019050919050565b60006121816031836125f8565b915061218c82612e49565b604082019050919050565b6121a081612743565b82525050565b6121b76121b282612743565b612869565b82525050565b60006121c98285611e8a565b6020820191506121d98284611e8a565b6020820191508190509392505050565b60006121f58285611f13565b91506122018284611f13565b91508190509392505050565b600061221982866121a6565b6020820191506122298285611e55565b60148201915061223982846121a6565b602082019150819050949350505050565b600060208201905061225f6000830184611e46565b92915050565b600060808201905061227a6000830187611e46565b6122876020830186611e46565b6122946040830185612197565b81810360608301526122a68184611ea1565b905095945050505050565b60006020820190506122c66000830184611e6c565b92915050565b60006020820190506122e16000830184611e7b565b92915050565b600060208201905081810360008301526123018184611eda565b905092915050565b6000602082019050818103600083015261232281611f44565b9050919050565b6000602082019050818103600083015261234281611f67565b9050919050565b6000602082019050818103600083015261236281611f8a565b9050919050565b6000602082019050818103600083015261238281611fad565b9050919050565b600060208201905081810360008301526123a281611fd0565b9050919050565b600060208201905081810360008301526123c281611ff3565b9050919050565b600060208201905081810360008301526123e281612016565b9050919050565b6000602082019050818103600083015261240281612039565b9050919050565b600060208201905081810360008301526124228161205c565b9050919050565b600060208201905081810360008301526124428161207f565b9050919050565b60006020820190508181036000830152612462816120a2565b9050919050565b60006020820190508181036000830152612482816120c5565b9050919050565b600060208201905081810360008301526124a2816120e8565b9050919050565b600060208201905081810360008301526124c28161210b565b9050919050565b600060208201905081810360008301526124e28161212e565b9050919050565b6000602082019050818103600083015261250281612151565b9050919050565b6000602082019050818103600083015261252281612174565b9050919050565b600060208201905061253e6000830184612197565b92915050565b60006060820190506125596000830186612197565b6125666020830185611e46565b6125736040830184612197565b949350505050565b6000612585612596565b905061259182826127c1565b919050565b6000604051905090565b600067ffffffffffffffff8211156125bb576125ba612960565b5b6125c4826129ad565b9050602081019050919050565b600081519050919050565b600081519050919050565b600082825260208201905092915050565b600082825260208201905092915050565b600081905092915050565b600061261f82612743565b915061262a83612743565b9250827fffffffffffffffffffffffffffffffffffffffffffffffffffffffffffffffff0382111561265f5761265e6128a4565b5b828201905092915050565b600061267582612743565b915061268083612743565b9250826126905761268f6128d3565b5b828204905092915050565b60006126a682612743565b91506126b183612743565b9250828210156126c4576126c36128a4565b5b828203905092915050565b60006126da82612723565b9050919050565b60008115159050919050565b6000819050919050565b60007fffffffff0000000000000000000000000000000000000000000000000000000082169050919050565b600073ffffffffffffffffffffffffffffffffffffffff82169050919050565b6000819050919050565b82818337600083830152505050565b60005b8381101561277a57808201518184015260208101905061275f565b83811115612789576000848401525b50505050565b600060028204905060018216806127a757607f821691505b602082108114156127bb576127ba612902565b5b50919050565b6127ca826129ad565b810181811067ffffffffffffffff821117156127e9576127e8612960565b5b80604052505050565b60006127fd82612743565b91507fffffffffffffffffffffffffffffffffffffffffffffffffffffffffffffffff8214156128305761282f6128a4565b5b600182019050919050565b600061284682612857565b9050919050565b6000819050919050565b6000612862826129be565b9050919050565b6000819050919050565b600061287e82612743565b915061288983612743565b925082612899576128986128d3565b5b828206905092915050565b7f4e487b7100000000000000000000000000000000000000000000000000000000600052601160045260246000fd5b7f4e487b7100000000000000000000000000000000000000000000000000000000600052601260045260246000fd5b7f4e487b7100000000000000000000000000000000000000000000000000000000600052602260045260246000fd5b7f4e487b7100000000000000000000000000000000000000000000000000000000600052603260045260246000fd5b7f4e487b7100000000000000000000000000000000000000000000000000000000600052604160045260246000fd5b600080fd5b600080fd5b600080fd5b600080fd5b600080fd5b600080fd5b6000601f19601f8301169050919050565b60008160601b9050919050565b7f4552433732313a207472616e7366657220746f206e6f6e20455243373231526560008201527f63656976657220696d706c656d656e7465720000000000000000000000000000602082015250565b7f4552433732313a20746f6b656e20616c7265616479206d696e74656400000000600082015250565b7f4d65726b6c654469737472696275746f723a2044726f7020616c72656164792060008201527f636c61696d65642e000000000000000000000000000000000000000000000000602082015250565b7f4552433732313a207472616e7366657220746f20746865207a65726f2061646460008201527f7265737300000000000000000000000000000000000000000000000000000000602082015250565b7f4552433732313a20617070726f766520746f2063616c6c657200000000000000600082015250565b7f4552433732313a206f70657261746f7220717565727920666f72206e6f6e657860008201527f697374656e7420746f6b656e0000000000000000000000000000000000000000602082015250565b7f4d65726b6c654469737472696275746f723a20496e76616c69642070726f6f6660008201527f2e00000000000000000000000000000000000000000000000000000000000000602082015250565b7f4552433732313a20617070726f76652063616c6c6572206973206e6f74206f7760008201527f6e6572206e6f7220617070726f76656420666f7220616c6c0000000000000000602082015250565b7f4552433732313a2062616c616e636520717565727920666f7220746865207a6560008201527f726f206164647265737300000000000000000000000000000000000000000000602082015250565b7f4552433732313a206f776e657220717565727920666f72206e6f6e657869737460008201527f656e7420746f6b656e0000000000000000000000000000000000000000000000602082015250565b7f4d65726b6c654469737472696275746f723a205472616e73666572206661696c60008201527f65642e0000000000000000000000000000000000000000000000000000000000602082015250565b7f4552433732313a206d696e7420746f20746865207a65726f2061646472657373600082015250565b7f4552433732313a20617070726f76656420717565727920666f72206e6f6e657860008201527f697374656e7420746f6b656e0000000000000000000000000000000000000000602082015250565b7f4552433732313a207472616e73666572206f6620746f6b656e2074686174206960008201527f73206e6f74206f776e0000000000000000000000000000000000000000000000602082015250565b7f4552433732314d657461646174613a2055524920717565727920666f72206e6f60008201527f6e6578697374656e7420746f6b656e0000000000000000000000000000000000602082015250565b7f4552433732313a20617070726f76616c20746f2063757272656e74206f776e6560008201527f7200000000000000000000000000000000000000000000000000000000000000602082015250565b7f4552433732313a207472616e736665722063616c6c6572206973206e6f74206f60008201527f776e6572206e6f7220617070726f766564000000000000000000000000000000602082015250565b612ea1816126cf565b8114612eac57600080fd5b50565b612eb8816126e1565b8114612ec357600080fd5b50565b612ecf816126f7565b8114612eda57600080fd5b50565b612ee681612743565b8114612ef157600080fd5b5056fea2646970667358221220b8b747b374fd08b737910f6bb7c3f67c8b79c11d3f97e1ec66ef8d28c364f0dd64736f6c63430008070033",
  "linkReferences": {},
  "deployedLinkReferences": {}
}